0162875930999992019010100004-34960-057900FM-12+002199999V0201101N0036122000199010000199+02051+01731101171ADDAA101999999AZ101061AZ201061GA1011+030001031GE19MSL   +99999+99999GF101991011999030001999999KA1120M+02521KA2120N+02051MA1999999100901MD1310051+9999REMSYN004BUFR
0111875930999992019010109004-34960-057900FM-12+002199999V0200201N00461001501C9010000199+02201+02011101211ADDAZ101031AZ201031GA1061+001501071GE19MSL   +99999+99999GF106991061999001501999999MA1999999100941REMSYN004BUFR
0186875930999992019010112004-34960-057900FM-12+002199999V0200501N0051199999999010000199+02321+02101101221ADDAJ100009100000099AZ101061AZ201061GA1031+003001071GE19MSL   +99999+99999GF105991031999003001999999IA1009IA2999+01809KA1120M+02391KA2120N+01981MA1999999100941MD1410001+9999REMSYN004BUFR
0125875930999992019010115004-34960-057900FM-12+002199999V0200201N0041199999999010000199+02761+02311101091ADDAZ101031AZ201031GA1031+030001031GE19MSL   +99999+99999GF105991031999030001999999MA1999999100821MD1710121+9999REMSYN004BUFR
0136875930999992019010118004-34960-057900FM-12+002199999V0200501N00511030001C9010000199+02951+02431100851ADDAA101999999AZ101061AZ201061GA1061+030001031GE19MSL   +99999+99999GF106991061999030001999999MA1999999100581MD1710241+9999REMSYN004BUFR
0157875930999992019010121004-34960-057900FM-12+000999999V0200501N00361030001C9010000199+03071+02461100631ADDAZ101031AZ201031GA1011+006001081GA2051+030001031GA3999+999999081GE19MSL   +99999+99999GF105991011999006001999999MA1999999100371MD1510211+9999REMSYN004BUFR
0162875930999992019010200004-34960-057900FM-12+002199999V0200501N00311030001C9010000199+02701+02381100721ADDAA101999999AZ101061AZ201061GA1061+030001031GE19MSL   +99999+99999GF106991061999030001999999KA1120M+03151KA2120N+02331MA1999999100461MD1310091+9999REMSYN004BUFR
0157875930999992019010209004-34960-057900FM-12+001599999V0200501N00101030001C9010000199+02511+02391100631ADDAZ101031AZ201031GA1031+007501081GA2031+030001031GA3999+999999081GE19MSL   +99999+99999GF106991031999007501999999MA1999999100371MD1010021+9999REMSYN004BUFR
0227875930999992019010212004-34960-057900FM-12+002199999V0200201N00311007501C9010000199+02621+02471100561ADDAA112003031AJ100003100003099AY181061GA1021+003001061GA2031+007501081GA3061+015001051GE19MSL   +99999+99999GF108991021999003001999999IA1109IA2999+02309KA1120M+02771KA2120N+02471MA1999999100301MD1810071+9999MW1251REMSYN004BUFR
0147875930999992019010215004-34960-057900FM-12+002199999V0200701N00261004501C9010000199+02721+02551100381ADDAY181031AY221031GA1011+003001061GA2071+004501061GE19MSL   +99999+99999GF107991011999003001999999MA1999999100121MD1710191+9999MW1021REMSYN004BUFR
0174875930999992019010218004-34960-057900FM-12+002199999V0201801N0036101350199007000199+02171+02141100411ADDAA106007031AY191061AY281061GA1011+012001091GA2081+013501051GA3999+999999091GE19MSL   +99999+99999GF108991011999012001999999MA1999999100141MD1110031+9999MW1951REMSYN004BUFR
0131875930999992019010221004-34960-057900FM-12+002199999V0203601N00001030001C9008000199+02411+02251100321ADDAY191031AY221031GA1081+030001031GE19MSL   +99999+99999GF108991081999030001999999MA1999999100061MD1710081+9999MW1101REMSYN004BUFR
0168875930999992019010300004-34960-057900FM-12+002199999V0202301N00261030001C9008000199+02321+02201100501ADDAA106999999AY191061AY221061GA1081+030001031GE19MSL   +99999+99999GF108991081999030001999999KA1120M+02781KA2120N+02171MA1999999100241MD1210171+9999MW1101REMSYN004BUFR
0141875930999992019010309004-34960-057900FM-12+002199999V0201801N00361060001C9010000199+01421+01241101231ADDAZ101031AZ201031GA1011+030001031GA2071+060001021GE19MSL   +99999+99999GF107991011999030001999999MA1999999100961MD1310211+9999REMSYN004BUFR
0186875930999992019010312004-34960-057900FM-12+002199999V0201801N0036106000199010000199+01621+01061101351ADDAJ100013100007099AZ101061AZ201061GA1071+060001021GE19MSL   +99999+99999GF107991071999060001999999IA1009IA2999+01409KA1120M+02341KA2120N+01401MA1999999101081MD1310121+9999REMSYN004BUFR
0125875930999992019010315004-34960-057900FM-12+002199999V0201601N0031122000199010000199+02071+00811101381ADDAZ101031AZ201031GA1041+060001021GE19MSL   +99999+99999GF104991041999060001999999MA1999999101101MD1010031+9999REMSYN004BUFR
0136875930999992019010318004-34960-057900FM-12+002199999V0202001N0026122000199010000199+02301+00671101341ADDAA101999999AZ101061AZ201061GA1021+060001001GE19MSL   +99999+99999GF102991021999060001999999MA1999999101061MD1710041+9999REMSYN004BUFR
0125875930999992019010321004-34960-057900FM-12+002199999V0202001N0026122000199010000199+02251+00681101201ADDAZ101031AZ201031GA1021+060001001GE19MSL   +99999+99999GF102991021999060001999999MA1999999100931MD1710131+9999REMSYN004BUFR
0162875930999992019010400004-34960-057900FM-12+002199999V0200501N0015122000199010000199+01821+01191101321ADDAA101999999AZ101061AZ201061GA1011+060001001GE19MSL   +99999+99999GF101991011999060001999999KA1120M+02351KA2120N+01621MA1999999101051MD1210121+9999REMSYN004BUFR
0093875930999992019010409004-34960-057900FM-12+002199999V0203601N0000122000199007000199+01751+01071101421ADDAY101031AY201031GF100991999999999999999999MA1999999101141MD1210121+9999MW1101REMSYN004BUFR
0148875930999992019010412004-34960-057900FM-12+002199999V0203601N0026122000199010000199+02211+01401101581ADDAJ100009100000099AZ101061AZ201061GF100991999999999999999999IA1009IA2999+01209KA1120M+02211KA2120N+01751MA1999999101301MD1210161+9999REMSYN004BUFR
0087875930999992019010415004-34960-057900FM-12+002199999V0203201N0021122000199010000199+02611+01371101571ADDAZ101031AZ201031GF100991999999999999999999MA1999999101301MD1010001+9999REMSYN004BUFR
0152875930999992019010418004-34960-057900FM-12+001299999V0203601N0036122000199010000199+02721+01621101411ADDAA101999999AZ101061AZ201061GA1011+007501081GA2999+999999081GE19MSL   +99999+99999GF102991011999007501999999MA1999999101141MD1710161+9999REMSYN004BUFR
0125875930999992019010421004-34960-057900FM-12+002199999V0200501N0031122000199010000199+02621+01581101271ADDAZ101031AZ201031GA1021+008401081GE19MSL   +99999+99999GF102991021999008401999999MA1999999101001MD1710151+9999REMSYN004BUFR
0162875930999992019010500004-34960-057900FM-12+002199999V0200501N0010122000199010000199+02301+01711101391ADDAA101999999AZ101061AZ201061GA1011+030001031GE19MSL   +99999+99999GF101991011999030001999999KA1120M+02841KA2120N+02211MA1999999101121MD1210121+9999REMSYN004BUFR
0087875930999992019010509004-34960-057900FM-12+002199999V0200201N0021122000199010000199+01901+01581101461ADDAZ101031AZ201031GF100991999999999999999999MA1999999101201MD1310011+9999REMSYN004BUFR
0148875930999992019010512004-34960-057900FM-12+002199999V0200201N0036122000199010000199+02461+01281101491ADDAJ100009100000099AZ101061AZ201061GF100991999999999999999999IA1009IA2999+01509KA1120M+02461KA2120N+01901MA1999999101221MD1210031+9999REMSYN004BUFR
0087875930999992019010515004-34960-057900FM-12+002199999V0203601N0041122000199010000199+02701+01411101431ADDAZ101031AZ201031GF100991999999999999999999MA1999999101161MD1710071+9999REMSYN004BUFR
0098875930999992019010518004-34960-057900FM-12+002199999V0200501N0046122000199010000199+02771+01311101221ADDAA101999999AZ101061AZ201061GF100991999999999999999999MA1999999100941MD1710211+9999REMSYN004BUFR
0087875930999992019010521004-34960-057900FM-12+002199999V0200701N0036122000199010000199+02751+01351100961ADDAZ101031AZ201031GF100991999999999999999999MA1999999100691MD1710251+9999REMSYN004BUFR
0124875930999992019010600004-34960-057900FM-12+002199999V0200701N0021122000199010000199+02401+01791100911ADDAA101999999AZ101061AZ201061GF100991999999999999999999KA1120M+02821KA2120N+02351MA1999999100641MD1510051+9999REMSYN004BUFR
0141875930999992019010609004-34960-057900FM-12+002199999V0203601N0021199999999010000199+02221+01831100811ADDAZ101031AZ201031GA1011+006001061GA2041+030001031GE19MSL   +99999+99999GF106991011999006001999999MA1999999100541MD1810021+9999REMSYN004BUFR
0211875930999992019010612004-34960-057900FM-12+002199999V0203601N00311013501C9010000199+02351+01951100721ADDAA112999999AJ100009100000099AY191061GA1011+006001061GA2051+013501051GE19MSL   +99999+99999GF107991011999006001999999IA1109IA2999+01809KA1120M+02501KA2120N+02181MA1999999100451MD1810091+9999MW1211REMSYN004BUFR
0147875930999992019010615004-34960-057900FM-12+002199999V0203601N00511060001C9009000199+02401+01871100491ADDAY161031AY221031GA1071+013501051GA2081+060001021GE19MSL   +99999+99999GF108991071999013501999999MA1999999100221MD1810231+9999MW1601REMSYN004BUFR
0158875930999992019010618004-34960-057900FM-12+002199999V0202301N0026106000199010000199+02711+01911100471ADDAA106999999AY161061AY221061GA1021+030001031GA2071+060001021GE19MSL   +99999+99999GF107991021999030001999999MA1999999100211MD1710011+9999MW1021REMSYN004BUFR
0125875930999992019010621004-34960-057900FM-12+002199999V0203601N0000106000199010000199+02801+02061100291ADDAZ101031AZ201031GA1051+060001021GE19MSL   +99999+99999GF105991051999060001999999MA1999999100021MD1710191+9999REMSYN004BUFR
0162875930999992019010700004-34960-057900FM-12+002199999V0202301N00261030001C9010000199+02371+01951100301ADDAA101999999AZ101061AZ201061GA1051+030001031GE19MSL   +99999+99999GF106991051999030001999999KA1120M+02891KA2120N+02351MA1999999100041MD1010011+9999REMSYN004BUFR
0125875930999992019010709004-34960-057900FM-12+002199999V0202301N00151015001C9010000199+02021+02011099881ADDAZ101031AZ201031GA1081+015001051GE19MSL   +99999+99999GF108991081999015001999999MA1999999099621MD1510271+9999REMSYN004BUFR
0219875930999992019010712004-34960-057900FM-12+002199999V0201801N00261024001C9010000199+02221+02171099911ADDAA112001031AJ100003100001099AY161061AY221061GA1051+005401061GA2081+024001031GE19MSL   +99999+99999GF108991051999005401999999IA1109IA2999+02009KA1120M+02431KA2120N+02001MA1999999099651MD1010031+9999MW1211REMSYN004BUFR
0157875930999992019010715004-34960-057900FM-12+002199999V0202301N00211060001C9010000199+02411+02161099971ADDAZ101031AZ201031GA1051+004501061GA2051+030001031GA3081+060001021GE19MSL   +99999+99999GF108991051999004501999999MA1999999099701MD1010051+9999REMSYN004BUFR
0174875930999992019010718004-34960-057900FM-12+000499999V0202701N0015101800199008000199+02501+02061099951ADDAA106999999AY161061AY221061GA1021+006001081GA2081+018001051GA3999+999999081GE19MSL   +99999+99999GF108991021999006001999999MA1999999099691MD1510011+9999MW1611REMSYN004BUFR
0163875930999992019010721004-34960-057900FM-12+000499999V0202301N00211030001C9010000199+02621+02101100011ADDAY161031AY221031GA1031+009001081GA2051+030001031GA3999+999999081GE19MSL   +99999+99999GF106991031999009001999999MA1999999099741MD1210051+9999MW1011REMSYN004BUFR
0168875930999992019010800004-34960-057900FM-12+002199999V0203601N0000122000199010000199+02261+02121100191ADDAA101999999AY161061AY211061GA1011+030001031GE19MSL   +99999+99999GF101991011999030001999999KA1120M+02701KA2120N+02231MA1999999099921MD1210171+9999MW1011REMSYN004BUFR
0093875930999992019010809004-34960-057900FM-12+002199999V0203601N0000122000199006000199+02251+02131100701ADDAY101031AY201031GF100991999999999999999999MA1999999100421MD1210241+9999MW1101REMSYN004BUFR
0148875930999992019010812004-34960-057900FM-12+002199999V0202701N0036122000199010000199+02621+02061100961ADDAJ100009100000099AZ101061AZ201061GF100991999999999999999999IA1009IA2999+01609KA1120M+02631KA2120N+02071MA1999999100691MD1210271+9999REMSYN004BUFR
0141875930999992019010815004-34960-057900FM-12+002199999V0202901N00211007501C9010000199+02921+02031101031ADDAZ101031AZ201031GA1051+007501081GA2999+999999081GE19MSL   +99999+99999GF106991051999007501999999MA1999999100771MD1010081+9999REMSYN004BUFR
0168875930999992019010818004-34960-057900FM-12+001599999V0201801N00261060001C9010000199+02851+01871101021ADDAA101999999AZ101061AZ201061GA1031+009001081GA2051+060001021GA3999+999999081GE19MSL   +99999+99999GF106991031999009001999999MA1999999100761MD1510011+9999REMSYN004BUFR
0141875930999992019010821004-34960-057900FM-12+002199999V0200701N0031122000199010000199+02921+01841100851ADDAZ101031AZ201031GA1011+030001031GA2041+060001001GE19MSL   +99999+99999GF104991011999030001999999MA1999999100581MD1710171+9999REMSYN004BUFR
0194875930999992019010900004-34960-057900FM-12+001599999V0201101N0021199999999010000199+02551+02091100881ADDAA101999999AZ101061AZ201061GA1021+006001081GA2031+060001021GA3999+999999081GE19MSL   +99999+99999GF106991021999006001999999KA1120M+03061KA2120N+02541MA1999999100621MD1210041+9999REMSYN004BUFR
0141875930999992019010909004-34960-057900FM-12+001599999V0203601N0015122000199010000199+02271+02241100601ADDAZ101031AZ201031GA1021+012001081GA2999+999999081GE19MSL   +99999+99999GF103991021999012001999999MA1999999100341MD1310061+9999REMSYN004BUFR
0251875930999992019010912004-34960-057900FM-12+002199999V0200901N00361030001C9010000199+02301+01671100501ADDAA112999999AJ100009100000099AY181061AY211061GA1031+012001081GA2031+030001031GA3071+060001021GA4999+999999081GE19MSL   +99999+99999GF107991031999012001999999IA1089IA2999+02009KA1120M+02561KA2120N+02081MA1999999100241MD1710111+9999MW1021REMSYN004BUFR
0125875930999992019010915004-34960-057900FM-12+002199999V0202301N00261030001C9010000199+02661+01861100731ADDAZ101031AZ201031GA1071+030001031GE19MSL   +99999+99999GF107991071999030001999999MA1999999100461MD1210231+9999REMSYN004BUFR
0152875930999992019010918004-34960-057900FM-12+002199999V0201801N00461060001C9010000199+02571+01901100621ADDAA101999999AZ101061AZ201061GA1051+030001031GA2041+060001021GE19MSL   +99999+99999GF105991051999030001999999MA1999999100361MD1710111+9999REMSYN004BUFR
0141875930999992019010921004-34960-057900FM-12+002199999V0201601N0026101500199010000199+02501+01911100761ADDAZ101031AZ201031GA1041+006001061GA2081+015001051GE19MSL   +99999+99999GF108991041999006001999999MA1999999100491MD1310131+9999REMSYN004BUFR
0178875930999992019011000004-34960-057900FM-12+002199999V0201601N0021102100199010000199+02221+01891101001ADDAA101999999AZ101061AZ201061GA1031+006001061GA2081+021001051GE19MSL   +99999+99999GF108991031999006001999999KA1120M+02901KA2120N+02201MA1999999100731MD1210241+9999REMSYN004BUFR
0125875930999992019011009004-34960-057900FM-12+002199999V0202001N0026199999999010000199+01621+01551101241ADDAZ101031AZ201031GA1031+030001031GE19MSL   +99999+99999GF105991031999030001999999MA1999999100971MD1310161+9999REMSYN004BUFR
0218875930999992019011012004-34960-057900FM-12+002199999V0201601N0041106000199010000199+01971+01551101441ADDAJ100009100000099AZ101061AZ201061GA1011+006001061GA2041+030001031GA3081+060001021GE19MSL   +99999+99999GF108991011999006001999999IA1009IA2999+01609KA1120M+02231KA2120N+01621MA1999999101171MD1210201+9999REMSYN004BUFR
0157875930999992019011015004-34960-057900FM-12+002199999V0201601N00511060001C9010000199+02201+01551101561ADDAZ101031AZ201031GA1061+005401061GA2061+030001031GA3081+060001021GE19MSL   +99999+99999GF108991061999005401999999MA1999999101291MD1210121+9999REMSYN004BUFR
0158875930999992019011018004-34960-057900FM-12+002199999V0201801N0072101350199009000199+02111+01581101591ADDAA106999999AY161061AY221061GA1041+005401061GA2081+013501051GE19MSL   +99999+99999GF108991041999005401999999MA1999999101321MD1210031+9999MW1601REMSYN004BUFR
0147875930999992019011021004-34960-057900FM-12+002199999V0201801N00671030001C9010000199+01971+01541101671ADDAY161031AY221031GA1031+005401061GA2051+030001031GE19MSL   +99999+99999GF106991031999005401999999MA1999999101401MD1310081+9999MW1021REMSYN004BUFR
0168875930999992019011100004-34960-057900FM-12+002199999V0201801N00721030001C9010000199+01751+01341101871ADDAA106999999AY161061AY221061GA1061+030001031GE19MSL   +99999+99999GF106991061999030001999999KA1120M+02281KA2120N+01741MA1999999101601MD1210201+9999MW1011REMSYN004BUFR
0131875930999992019011109004-34960-057900FM-12+002199999V0202301N0015122000199010000199+00951+00941102121ADDAY101031AY201031GA1021+060001001GE19MSL   +99999+99999GF102991021999060001999999MA1999999101841MD1210041+9999MW1101REMSYN004BUFR
0186875930999992019011112004-34960-057900FM-12+002199999V0201401N0026122000199010000199+01721+01131102201ADDAJ100009100000099AZ101061AZ201061GA1011+060001001GE19MSL   +99999+99999GF101991011999060001999999IA1009IA2999+00609KA1120M+01751KA2120N+00871MA1999999101921MD1110081+9999REMSYN004BUFR
0087875930999992019011115004-34960-057900FM-12+002199999V0201401N0031122000199010000199+02161+00751102151ADDAZ101031AZ201031GF100991999999999999999999MA1999999101881MD1810041+9999REMSYN004BUFR
0098875930999992019011118004-34960-057900FM-12+002199999V0200701N0041122000199010000199+02361+00891102011ADDAA101999999AZ101061AZ201061GF100991999999999999999999MA1999999101741MD1710071+9999REMSYN004BUFR
0087875930999992019011121004-34960-057900FM-12+002199999V0200901N0041122000199010000199+02151+00731101911ADDAZ101031AZ201031GF100991999999999999999999MA1999999101641MD1710111+9999REMSYN004BUFR
0124875930999992019011200004-34960-057900FM-12+002199999V0203601N0000122000199010000199+01651+01061101881ADDAA101999999AZ101061AZ201061GF100991999999999999999999KA1120M+02401KA2120N+01651MA1999999101601MD1610041+9999REMSYN004BUFR
0131875930999992019011209004-34960-057900FM-12+002199999V0203601N0021122000199008000199+01911+01611101761ADDAY101031AY201031GA1041+030001031GE19MSL   +99999+99999GF104991041999030001999999MA1999999101491MD1210051+9999MW1101REMSYN004BUFR
0186875930999992019011212004-34960-057900FM-12+002199999V0200501N0026122000199010000199+02221+01721101801ADDAJ100009100000099AZ101061AZ201061GA1021+030001031GE19MSL   +99999+99999GF102991021999030001999999IA1009IA2999+01009KA1120M+02231KA2120N+01371MA1999999101531MD1210041+9999REMSYN004BUFR
0125875930999992019011215004-34960-057900FM-12+002199999V0203601N00311006001C9010000199+02521+01711101721ADDAZ101031AZ201031GA1051+006001081GE19MSL   +99999+99999GF105991051999006001999999MA1999999101451MD1710081+9999REMSYN004BUFR
0098875930999992019011218004-34960-057900FM-12+002199999V0200701N0036122000199010000199+02621+01231101561ADDAA101999999AZ101061AZ201061GF100991999999999999999999MA1999999101291MD1710161+9999REMSYN004BUFR
0125875930999992019011221004-34960-057900FM-12+002199999V0200901N0036122000199010000199+02621+01621101421ADDAZ101031AZ201031GA1011+060001001GE19MSL   +99999+99999GF101991011999060001999999MA1999999101141MD1710151+9999REMSYN004BUFR
0162875930999992019011300004-34960-057900FM-12+002199999V0201401N0021122000199010000199+02071+01641101421ADDAA101999999AZ101061AZ201061GA1011+030001031GE19MSL   +99999+99999GF101991011999030001999999KA1120M+02711KA2120N+02081MA1999999101141MD1510001+9999REMSYN004BUFR
0141875930999992019011309004-34960-057900FM-12+002199999V0203601N0015106000199010000199+02151+02011101441ADDAZ101031AZ201031GA1031+030001031GA2061+060001021GE19MSL   +99999+99999GF106991031999030001999999MA1999999101171MD1210071+9999REMSYN004BUFR
0202875930999992019011312004-34960-057900FM-12+002199999V0201601N00151018001C9010000199+02261+02061101601ADDAJ100009100000099AZ101061AZ201061GA1051+004501061GA2081+018001051GE19MSL   +99999+99999GF108991051999004501999999IA1009IA2999+01709KA1120M+02321KA2120N+01941MA1999999101331MD1010161+9999REMSYN004BUFR
0147875930999992019011315004-34960-057900FM-12+002199999V0200701N00411018001C9009000199+02351+02081101401ADDAY161031AY221031GA1051+005401061GA2081+018001051GE19MSL   +99999+99999GF108991051999005401999999MA1999999101131MD1710201+9999MW1601REMSYN004BUFR
0158875930999992019011318004-34960-057900FM-12+002199999V0201101N0021103000199010000199+02351+02061101341ADDAA106999999AY161061AY221061GA1021+005401061GA2081+030001031GE19MSL   +99999+99999GF108991021999005401999999MA1999999101061MD1510071+9999MW1021REMSYN004BUFR
0157875930999992019011321004-34960-057900FM-12+000499999V0201401N00311060001C9010000199+02461+02001101271ADDAZ101031AZ201031GA1051+006601081GA2041+060001011GA3999+999999081GE19MSL   +99999+99999GF106991051999006601999999MA1999999101001MD1810071+9999REMSYN004BUFR
0194875930999992019011400004-34960-057900FM-12+001599999V0201401N0015199999999010000199+02151+02031101451ADDAA101999999AZ101061AZ201061GA1021+007501081GA2031+060001001GA3999+999999081GE19MSL   +99999+99999GF105991021999007501999999KA1120M+02531KA2120N+02131MA1999999101181MD1210191+9999REMSYN004BUFR
0139875930999992019011409004-34960-057900FM-12+000999999V0202001N0015122000199007000199+01921+01921101371ADDAY101031GA1011+007501081GA2999+999999081GE19MSL   +99999+99999GF101991011999007501999999MA1999999101101MD1510051+9999MW1101REMSYN004BUFR
0186875930999992019011412004-34960-057900FM-12+002199999V0201601N0041122000199010000199+02401+02121101451ADDAJ100009100000099AZ101061AZ201061GA1031+002101071GE19MSL   +99999+99999GF103991031999002101999999IA1009IA2999+01709KA1120M+02411KA2120N+01851MA1999999101181MD1210081+9999REMSYN004BUFR
0141875930999992019011415004-34960-057900FM-12+002199999V0200901N0051199999999010000199+02551+02131101471ADDAZ101031AZ201031GA1011+005401061GA2041+030001031GE19MSL   +99999+99999GF106991011999005401999999MA1999999101201MD1310011+9999REMSYN004BUFR
0158875930999992019011418004-34960-057900FM-12+002199999V0200901N00511030001C9010000199+02561+02051101381ADDAA106999999AY161061AY221061GA1031+005401061GA2051+030001031GE19MSL   +99999+99999GF107991031999005401999999MA1999999101101MD1710091+9999MW1021REMSYN004BUFR
0147875930999992019011421004-34960-057900FM-12+002199999V0201401N00461030001C9010000199+02511+02031101271ADDAY151031AY221031GA1031+005401061GA2041+030001031GE19MSL   +99999+99999GF106991031999005401999999MA1999999101001MD1710111+9999MW1201REMSYN004BUFR
0168875930999992019011500004-34960-057900FM-12+002199999V0201101N00311030001C9010000199+02221+01921101391ADDAA106999999AY151061AY221061GA1061+030001031GE19MSL   +99999+99999GF106991061999030001999999KA1120M+02731KA2120N+02231MA1999999101121MD1210121+9999MW1031REMSYN004BUFR
0157875930999992019011509004-34960-057900FM-12+001299999V0201801N0015103000199010000199+01921+01911101201ADDAZ101031AZ201031GA1041+004501081GA2051+030001031GA3999+999999081GE19MSL   +99999+99999GF106991041999004501999999MA1999999100931MD1510051+9999REMSYN004BUFR
0219875930999992019011512004-34960-057900FM-12+002199999V0201401N0031101800199008000199+02121+02101101181ADDAA112002031AJ100003100002099AY161061AY221061GA1021+004501061GA2081+018001051GE19MSL   +99999+99999GF108991021999004501999999IA1109IA2999+01809KA1120M+02231KA2120N+01901MA1999999100901MD1710031+9999MW1611REMSYN004BUFR
0147875930999992019011515004-34960-057900FM-12+002199999V0201101N0031101800199006000199+02261+02221101061ADDAY161031AY261031GA1031+003001071GA2081+018001051GE19MSL   +99999+99999GF108991031999003001999999MA1999999100781MD1710121+9999MW1611REMSYN004BUFR
0158875930999992019011518004-34960-057900FM-12+002199999V0201401N00571012001C9009000199+02351+02131100871ADDAA106009031AY161061AY261061GA1051+003001061GA2081+012001051GE19MSL   +99999+99999GF108991051999003001999999MA1999999100601MD1710191+9999MW1601REMSYN004BUFR
0147875930999992019011521004-34960-057900FM-12+002199999V0201101N00461013501C9009000199+02271+02051100791ADDAY161031AY261031GA1051+003001061GA2061+013501051GE19MSL   +99999+99999GF107991051999003001999999MA1999999100521MD1810081+9999MW1601REMSYN004BUFR
0093875930999992019011609004-34960-057900FM-12+002199999V0202301N0026199999999000100199+01821+01821100891ADDAY141031AY201031GF199999091999999999999999MA1999999100621MD1210061+9999MW1471REMSYN004BUFR
0192875930999992019011612004-34960-057900FM-12+002199999V0202701N00211001201C9001200199+02001+01971101031ADDAJ100023100015099AY141061AY221061GA1081+001201071GE19MSL   +99999+99999GF108991081999001201999999IA1089IA2999+01709KA1120M+02021KA2120N+01761MA1999999100761MD1210131+9999MW1281REMSYN004BUFR
0141875930999992019011615004-34960-057900FM-12+002199999V0202701N00311005401C9010000199+02511+01811101101ADDAZ101031AZ201031GA1051+005401081GA2999+999999081GE19MSL   +99999+99999GF105991051999005401999999MA1999999100821MD1210071+9999REMSYN004BUFR
0136875930999992019011618004-34960-057900FM-12+002199999V0201801N0015122000199010000199+02701+01801101011ADDAA101999999AZ101061AZ201061GA1021+005401081GE19MSL   +99999+99999GF102991021999005401999999MA1999999100741MD1810081+9999REMSYN004BUFR
0125875930999992019011621004-34960-057900FM-12+002199999V0200201N0031122000199010000199+02651+02001100961ADDAZ101031AZ201031GA1011+005401081GE19MSL   +99999+99999GF101991011999005401999999MA1999999100691MD1610051+9999REMSYN004BUFR
0124875930999992019011700004-34960-057900FM-12+002199999V0200501N0010122000199010000199+02321+01971101101ADDAA101999999AZ101061AZ201061GF100991999999999999999999KA1120M+02931KA2120N+01771MA1999999100821MD1210131+9999REMSYN004BUFR
0125875930999992019011709004-34960-057900FM-12+002199999V0201801N0067122000199010000199+01651+01301101731ADDAZ101031AZ201031GA1041+030001031GE19MSL   +99999+99999GF104991041999030001999999MA1999999101461MD1210161+9999REMSYN004BUFR
0221875930999992019011712004-34960-057900FM-12+002199999V0201801N01031999999C9010000199+02021+01541101901ADDAJ100009100000099AZ101061AZ201061GA1021+004501081GA2031+030001031GE19MSL   +99999+99999GF103991021999004501999999IA1009IA2999+01509KA1120M+02321KA2120N+01621MA1999999101641MD1210171+9999REMSYN004BUFREQDQ01 030003SCOCIG
0141875930999992019011715004-34960-057900FM-12+002199999V0201601N0072103000199010000199+02161+01401101981ADDAZ101031AZ201031GA1021+006001061GA2071+030001031GE19MSL   +99999+99999GF107991021999006001999999MA1999999101721MD1210081+9999REMSYN004BUFR
0152875930999992019011718004-34960-057900FM-12+002199999V0201401N0072103000199010000199+02151+01241102091ADDAA101999999AZ101061AZ201061GA1031+007501061GA2071+030001031GE19MSL   +99999+99999GF107991031999007501999999MA1999999101821MD1210111+9999REMSYN004BUFR
0125875930999992019011721004-34960-057900FM-12+002199999V0201601N00671030001C9010000199+01951+01201102071ADDAZ101031AZ201031GA1071+030001031GE19MSL   +99999+99999GF107991071999030001999999MA1999999101801MD1610031+9999REMSYN004BUFR
0162875930999992019011800004-34960-057900FM-12+002199999V0201401N0031122000199010000199+01601+01161102221ADDAA101999999AZ101061AZ201061GA1011+030001031GE19MSL   +99999+99999GF101991011999030001999999KA1120M+02201KA2120N+01601MA1999999101961MD1210161+9999REMSYN004BUFR
0131875930999992019011809004-34960-057900FM-12+002199999V0202301N00151013501C9005000199+01321+01281102261ADDAY161031AY221031GA1081+013501051GE19MSL   +99999+99999GF108991081999013501999999MA1999999101981MD1210021+9999MW1631REMSYN004BUFR
0203875930999992019011812004-34960-057900FM-12+002199999V0201801N00311013501C9008000199+01451+01381102201ADDAA112004031AJ100003100004099AY161061AY221061GA1081+013501051GE19MSL   +99999+99999GF108991081999013501999999IA1109IA2999+01209KA1120M+01601KA2120N+01271MA1999999101921MD1510071+9999MW1601REMSYN004BUFR
0131875930999992019011815004-34960-057900FM-12+002199999V0201401N00621030001C9010000199+02101+01491102211ADDAY161031AY221031GA1061+030001031GE19MSL   +99999+99999GF106991061999030001999999MA1999999101941MD1010031+9999MW1021REMSYN004BUFR
0158875930999992019011818004-34960-057900FM-12+002199999V0201401N0062199999999010000199+02151+01561102191ADDAA106999999AY181061AY261061GA1011+004501061GA2041+009001081GE19MSL   +99999+99999GF105991011999004501999999MA1999999101921MD1610031+9999MW1251REMSYN004BUFR
0125875930999992019011821004-34960-057900FM-12+002199999V0201401N00571009001C9010000199+02201+01381102061ADDAZ101031AZ201031GA1051+009001081GE19MSL   +99999+99999GF105991051999009001999999MA1999999101801MD1710121+9999REMSYN004BUFR
0178875930999992019011900004-34960-057900FM-12+000999999V0201401N0021122000199010000199+01651+01451102201ADDAA101999999AZ101061AZ201061GA1011+008401081GA2999+999999081GE19MSL   +99999+99999GF101991011999008401999999KA1120M+02311KA2120N+01451MA1999999101921MD1210121+9999REMSYN004BUFR
0125875930999992019011909004-34960-057900FM-12+002199999V0201801N0021122000199010000199+01261+01241102311ADDAZ101031AZ201031GA1011+030001031GE19MSL   +99999+99999GF101991011999030001999999MA1999999102041MD1210051+9999REMSYN004BUFR
0148875930999992019011912004-34960-057900FM-12+002199999V0201401N0031122000199010000199+02051+01491102431ADDAJ100009100000099AZ101061AZ201061GF100991999999999999999999IA1009IA2999+01009KA1120M+02041KA2120N+01221MA1999999102161MD1210121+9999REMSYN004BUFR
0125875930999992019011915004-34960-057900FM-12+002199999V0201601N0021122000199010000199+02201+01321102401ADDAZ101031AZ201031GA1041+006001061GE19MSL   +99999+99999GF104991041999006001999999MA1999999102131MD1710031+9999REMSYN004BUFR
0136875930999992019011918004-34960-057900FM-12+002199999V0200901N0051122000199010000199+02321+01321102321ADDAA101999999AZ101061AZ201061GA1021+008401081GE19MSL   +99999+99999GF102991021999008401999999MA1999999102051MD1710081+9999REMSYN004BUFR
0087875930999992019011921004-34960-057900FM-12+002199999V0200901N0041122000199010000199+02271+01201102171ADDAZ101031AZ201031GF100991999999999999999999MA1999999101891MD1710161+9999REMSYN004BUFR
0124875930999992019012000004-34960-057900FM-12+002199999V0201101N0026122000199010000199+01771+01311102201ADDAA101999999AZ101061AZ201061GF100991999999999999999999KA1120M+02401KA2120N+01781MA1999999101931MD1310041+9999REMSYN004BUFR
0125875930999992019012009004-34960-057900FM-12+002199999V0200501N00211030001C9010000199+01811+01471102071ADDAZ101031AZ201031GA1051+030001031GE19MSL   +99999+99999GF105991051999030001999999MA1999999101801MD1210011+9999REMSYN004BUFR
0186875930999992019012012004-34960-057900FM-12+002199999V0200501N0036122000199010000199+02111+01431102121ADDAJ100009100000099AZ101061AZ201061GA1021+007501081GE19MSL   +99999+99999GF103991021999007501999999IA1009IA2999+01309KA1120M+02141KA2120N+01621MA1999999101851MD1110051+9999REMSYN004BUFR
0125875930999992019012015004-34960-057900FM-12+002199999V0200501N0036122000199010000199+02321+01221102001ADDAZ101031AZ201031GA1011+007501081GE19MSL   +99999+99999GF101991011999007501999999MA1999999101731MD1710121+9999REMSYN004BUFR
0136875930999992019012018004-34960-057900FM-12+002199999V0200501N0036122000199010000199+02451+00721101801ADDAA101999999AZ101061AZ201061GA1021+060001021GE19MSL   +99999+99999GF102991021999060001999999MA1999999101531MD1710201+9999REMSYN004BUFR
0125875930999992019012021004-34960-057900FM-12+002199999V0200701N0062122000199010000199+02501+01381101531ADDAZ101031AZ201031GA1031+060001021GE19MSL   +99999+99999GF103991031999060001999999MA1999999101261MD1710271+9999REMSYN004BUFR
0124875930999992019012100004-34960-057900FM-12+002199999V0201101N0041122000199010000199+02051+01701101461ADDAA101999999AZ101061AZ201061GF100991999999999999999999KA1120M+02491KA2120N+02041MA1999999101201MD1810071+9999REMSYN004BUFR
0125875930999992019012109004-34960-057900FM-12+002199999V0200501N0021122000199010000199+01961+01721101431ADDAZ101031AZ201031GA1011+030001031GE19MSL   +99999+99999GF101991011999030001999999MA1999999101161MD1210051+9999REMSYN004BUFR
0186875930999992019012112004-34960-057900FM-12+002199999V0203601N0031122000199010000199+02351+01891101511ADDAJ100009100000099AZ101061AZ201061GA1011+007501081GE19MSL   +99999+99999GF101991011999007501999999IA1009IA2999+01209KA1120M+02341KA2120N+01721MA1999999101241MD1210081+9999REMSYN004BUFR
0125875930999992019012115004-34960-057900FM-12+002199999V0203601N0036122000199010000199+02701+01871101441ADDAZ101031AZ201031GA1021+007501081GE19MSL   +99999+99999GF102991021999007501999999MA1999999101171MD1710071+9999REMSYN004BUFR
0152875930999992019012118004-34960-057900FM-12+001299999V0203601N0031122000199010000199+02901+01801101261ADDAA101999999AZ101061AZ201061GA1011+007501081GA2999+999999081GE19MSL   +99999+99999GF101991011999007501999999MA1999999100981MD1710191+9999REMSYN004BUFR
0087875930999992019012121004-34960-057900FM-12+002199999V0203401N0036122000199010000199+02771+01691101131ADDAZ101031AZ201031GF100991999999999999999999MA1999999100861MD1710131+9999REMSYN004BUFR
0124875930999992019012200004-34960-057900FM-12+002199999V0203601N0010122000199010000199+02471+01821101171ADDAA101999999AZ101061AZ201061GF100991999999999999999999KA1120M+03001KA2120N+02341MA1999999100901MD1310041+9999REMSYN004BUFR
0131875930999992019012209004-34960-057900FM-12+002199999V0203601N0015122000199007000199+02201+02081101211ADDAY101031AY201031GA1031+030001031GE19MSL   +99999+99999GF103991031999030001999999MA1999999100941MD1210031+9999MW1101REMSYN004BUFR
0148875930999992019012212004-34960-057900FM-12+002199999V0203601N0026122000199010000199+02621+02041101281ADDAJ100009100000099AZ101061AZ201061GF100991999999999999999999IA1009IA2999+01709KA1120M+02631KA2120N+02061MA1999999101011MD1210071+9999REMSYN004BUFR
0125875930999992019012215004-34960-057900FM-12+002199999V0203401N0041122000199010000199+03051+02221101151ADDAZ101031AZ201031GA1031+006001081GE19MSL   +99999+99999GF103991031999006001999999MA1999999100891MD1710121+9999REMSYN004BUFR
0152875930999992019012218004-34960-057900FM-12+000699999V0203601N0036122000199010000199+03111+01991101041ADDAA101999999AZ101061AZ201061GA1021+007501081GA2999+999999081GE19MSL   +99999+99999GF102991021999007501999999MA1999999100781MD1710111+9999REMSYN004BUFR
0125875930999992019012221004-34960-057900FM-12+002199999V0203401N0041122000199010000199+03101+01941100891ADDAZ101031AZ201031GA1031+060001021GE19MSL   +99999+99999GF103991031999060001999999MA1999999100621MD1710161+9999REMSYN004BUFR
0168875930999992019012300004-34960-057900FM-12+002199999V0200201N0021106000199010000199+02851+02111100971ADDAA101999999AY111061AY211061GA1071+060001021GE19MSL   +99999+99999GF107991071999060001999999KA1120M+03201KA2120N+02631MA1999999100701MD1310081+9999MW1131REMSYN004BUFR
0157875930999992019012309004-34960-057900FM-12+002199999V0201801N00511060001C9010000199+02121+02011101421ADDAZ101031AZ201031GA1051+002101071GA2031+030001031GA3071+060001021GE19MSL   +99999+99999GF107991051999002101999999MA1999999101141MD1210151+9999REMSYN004BUFR
0203875930999992019012312004-34960-057900FM-12+002199999V0201401N0041122000199010000199+02121+02071101601ADDAA112016031AJ100023100016099AY191061AY261061GA1041+014401051GE19MSL   +99999+99999GF104991041999014401999999IA1109IA2999+01809KA1120M+02841KA2120N+01961MA1999999101331MD1010191+9999MW1291REMSYN004BUFR
0141875930999992019012315004-34960-057900FM-12+002199999V0201101N0067122000199010000199+02601+01841101591ADDAZ101031AZ201031GA1011+030001031GA2031+060001021GE19MSL   +99999+99999GF104991011999030001999999MA1999999101331MD1510001+9999REMSYN004BUFR
0136875930999992019012318004-34960-057900FM-12+002199999V0201101N0067122000199010000199+02671+01401101621ADDAA101999999AZ101061AZ201061GA1011+030001031GE19MSL   +99999+99999GF101991011999030001999999MA1999999101361MD1110031+9999REMSYN004BUFR
0125875930999992019012321004-34960-057900FM-12+002199999V0201101N0057122000199010000199+02561+01531101571ADDAZ101031AZ201031GA1011+060001001GE19MSL   +99999+99999GF101991011999060001999999MA1999999101301MD1610051+9999REMSYN004BUFR
0162875930999992019012400004-34960-057900FM-12+002199999V0201101N0036122000199010000199+02121+01801101651ADDAA101999999AZ101061AZ201061GA1011+030001031GE19MSL   +99999+99999GF101991011999030001999999KA1120M+02801KA2120N+02121MA1999999101381MD1110081+9999REMSYN004BUFR
0125875930999992019012409004-34960-057900FM-12+002199999V0200701N0026122000199010000199+02121+01901101821ADDAZ101031AZ201031GA1021+030001031GE19MSL   +99999+99999GF103991021999030001999999MA1999999101561MD1310181+9999REMSYN004BUFR
0186875930999992019012412004-34960-057900FM-12+002199999V0200901N0051122000199010000199+02321+01901101911ADDAJ100009100000099AZ101061AZ201061GA1041+004501071GE19MSL   +99999+99999GF104991041999004501999999IA1009IA2999+02009KA1120M+02351KA2120N+02051MA1999999101641MD1010081+9999REMSYN004BUFR
0125875930999992019012415004-34960-057900FM-12+002199999V0200901N0046122000199010000199+02521+02021101851ADDAZ101031AZ201031GA1011+004501071GE19MSL   +99999+99999GF101991011999004501999999MA1999999101581MD1710051+9999REMSYN004BUFR
0098875930999992019012418004-34960-057900FM-12+002199999V0200701N0062122000199010000199+02821+01901101711ADDAA101999999AZ101061AZ201061GF100991999999999999999999MA1999999101441MD1710151+9999REMSYN004BUFR
0087875930999992019012421004-34960-057900FM-12+002199999V0200901N0067122000199010000199+02721+02031101551ADDAZ101031AZ201031GF100991999999999999999999MA1999999101281MD1710161+9999REMSYN004BUFR
0124875930999992019012500004-34960-057900FM-12+002199999V0200901N0041122000199010000199+02461+02161101511ADDAA101999999AZ101061AZ201061GF100991999999999999999999KA1120M+03051KA2120N+02321MA1999999101241MD1510041+9999REMSYN004BUFR
0157875930999992019012509004-34960-057900FM-12+002199999V0200501N0041106000199010000199+02101+01861101511ADDAZ101031AZ201031GA1041+004501061GA2051+030001031GA3081+060001021GE19MSL   +99999+99999GF108991041999004501999999MA1999999101241MD1810021+9999REMSYN004BUFR
0251875930999992019012512004-34960-057900FM-12+002199999V0200501N0036102400199008000199+02121+01951101691ADDAA112000231AJ100003100000099AY191061AY261061GA1031+003601071GA2011+013501091GA3081+024001051GA4999+999999091GE19MSL   +99999+99999GF108991031999003601999999IA1109IA2999+02009KA1120M+02601KA2120N+02081MA1999999101421MD1210191+9999MW1951REMSYN004BUFR
0144875930999992019012515004-34960-057900FM-12+002199999V0200201N01131999999C9000300199+99999+02041101561ADDGA1052+004501061GA2082+018001051GE19MSL   +99999+99999GF101992052999004501999999MA1999999101291MD1710131+9999REMSYN004BUFREQDQ01 018003SCOCIG
0158875930999992019012518004-34960-057900FM-12+002199999V0203601N00461015001C9008000199+02321+02171101221ADDAA106001031AY191061AY261061GA1051+002401071GA2081+015001051GE19MSL   +99999+99999GF108991051999002401999999MA1999999100941MD1810351+9999MW1611REMSYN004BUFR
0147875930999992019012521004-34960-057900FM-12+002199999V0203601N0036101500199010000199+02451+02221100981ADDAY161031AY221031GA1021+003001071GA2081+015001051GE19MSL   +99999+99999GF108991021999003001999999MA1999999100701MD1710241+9999MW1021REMSYN004BUFR
0168875930999992019012600004-34960-057900FM-12+002199999V0201401N00151030001C9010000199+02371+02251101061ADDAA106999999AY161061AY221061GA1071+030001031GE19MSL   +99999+99999GF107991071999030001999999KA1120M+02481KA2120N+02121MA1999999100781MD1310081+9999MW1011REMSYN004BUFR
0131875930999992019012609004-34960-057900FM-12+002199999V0203601N0000106000199000400199+02171+99999101191ADDAY141031AY201031GA1061+060001021GE19MSL   +99999+99999GF106991061999060001999999MA1999999100921MD1210031+9999MW1441REMSYN004BUFR
0208875930999992019012612004-34960-057900FM-12+002199999V0202001N00261060001C9005000199+02501+02321101321ADDAJ100003100001099AY141061AY221061GA1021+030001031GA2051+060001021GE19MSL   +99999+99999GF106991021999030001999999IA1009IA2999+02009KA1120M+02491KA2120N+02181MA1999999101051MD1210131+9999MW1281REMSYN004BUFR
0125875930999992019012615004-34960-057900FM-12+002199999V0201401N0051122000199010000199+03051+02141101331ADDAZ101031AZ201031GA1021+060001021GE19MSL   +99999+99999GF102991021999060001999999MA1999999101061MD1010011+9999REMSYN004BUFR
0168875930999992019012618004-34960-057900FM-12+000499999V0200901N00411060001C9010000199+03001+02331101311ADDAA101999999AZ101061AZ201061GA1011+009001081GA2051+060001001GA3999+999999081GE19MSL   +99999+99999GF105991011999009001999999MA1999999101051MD1810011+9999REMSYN004BUFR
0141875930999992019012621004-34960-057900FM-12+002199999V0200901N00411060001C9010000199+02901+02381101291ADDAZ101031AZ201031GA1011+007501061GA2051+060001001GE19MSL   +99999+99999GF106991011999007501999999MA1999999101021MD1510031+9999REMSYN004BUFR
0178875930999992019012700004-34960-057900FM-12+002199999V0200901N0041106000199010000199+02501+02281101411ADDAA101999999AZ101061AZ201061GA1041+030001031GA2051+060001001GE19MSL   +99999+99999GF106991041999030001999999KA1120M+03181KA2120N+02471MA1999999101141MD1210121+9999REMSYN004BUFR
0131875930999992019012709004-34960-057900FM-12+002199999V0201601N00151002101C9006000199+02321+02251101441ADDAY121031AY221031GA1081+002101071GE19MSL   +99999+99999GF108991081999002101999999MA1999999101171MD1210061+9999MW1101REMSYN004BUFR
0192875930999992019012712004-34960-057900FM-12+002199999V0201101N00261002401C9009000199+02551+02321101461ADDAJ100009100000099AY121061AY221061GA1071+002401071GE19MSL   +99999+99999GF107991071999002401999999IA1089IA2999+02109KA1120M+02541KA2120N+02201MA1999999101201MD1210031+9999MW1101REMSYN004BUFR
0125875930999992019012715004-34960-057900FM-12+002199999V0201401N00361004501C9010000199+02801+02421101381ADDAZ101031AZ201031GA1061+004501061GE19MSL   +99999+99999GF106991061999004501999999MA1999999101101MD1710091+9999REMSYN004BUFR
0152875930999992019012718004-34960-057900FM-12+001299999V0200901N0026122000199010000199+03121+02521101181ADDAA101999999AZ101061AZ201061GA1031+006001081GA2999+999999081GE19MSL   +99999+99999GF103991031999006001999999MA1999999100921MD1710191+9999REMSYN004BUFR
0141875930999992019012721004-34960-057900FM-12+000999999V0200701N0057122000199010000199+02821+02401101061ADDAZ101031AZ201031GA1011+006601081GA2999+999999081GE19MSL   +99999+99999GF101991011999006601999999MA1999999100801MD1710121+9999REMSYN004BUFR
0124875930999992019012800004-34960-057900FM-12+002199999V0200701N0021122000199010000199+02601+02291100981ADDAA101999999AZ101061AZ201061GF100991999999999999999999KA1120M+03201KA2120N+02501MA1999999100721MD1710081+9999REMSYN004BUFR
0131875930999992019012809004-34960-057900FM-12+002199999V0200201N0010122000199010000199+02501+02391100951ADDAY101031AY201031GA1011+030001031GE19MSL   +99999+99999GF101991011999030001999999MA1999999100691MD1310021+9999MW1101REMSYN004BUFR
0186875930999992019012812004-34960-057900FM-12+002199999V0203401N0031122000199010000199+02821+02421100971ADDAJ100009100000099AZ101061AZ201061GA1031+030001031GE19MSL   +99999+99999GF103991031999030001999999IA1009IA2999+02209KA1120M+02851KA2120N+02321MA1999999100701MD1010011+9999REMSYN004BUFR
0141875930999992019012815004-34960-057900FM-12+000499999V0203401N0036122000199010000199+03201+02501100951ADDAZ101031AZ201031GA1011+007501081GA2999+999999081GE19MSL   +99999+99999GF102991011999007501999999MA1999999100691MD1810011+9999REMSYN004BUFR
0152875930999992019012818004-34960-057900FM-12+002199999V0203401N0031122000199010000199+03401+02561100881ADDAA101999999AZ101061AZ201061GA1041+007501081GA2999+999999081GE19MSL   +99999+99999GF104991041999007501999999MA1999999100621MD1710071+9999REMSYN004BUFR
0125875930999992019012821004-34960-057900FM-12+002199999V0203601N0021122000199010000199+03351+02411100791ADDAZ101031AZ201031GA1021+007501081GE19MSL   +99999+99999GF102991021999007501999999MA1999999100531MD1610091+9999REMSYN004BUFR
0178875930999992019012900004-34960-057900FM-12+002199999V0203601N0000122000199010000199+03071+02451100921ADDAA101999999AZ101061AZ201061GA1021+007501081GA2999+999999081GE19MSL   +99999+99999GF103991021999007501999999KA1120M+03551KA2120N+02831MA1999999100661MD1210131+9999REMSYN004BUFR
0141875930999992019012909004-34960-057900FM-12+001299999V0203601N0021122000199010000199+02701+02431100921ADDAZ101031AZ201031GA1011+012001081GA2999+999999081GE19MSL   +99999+99999GF101991011999012001999999MA1999999100661MD1710011+9999REMSYN004BUFR
0186875930999992019012912004-34960-057900FM-12+002199999V0203601N0041122000199010000199+03021+02471100941ADDAJ100009100000099AZ101061AZ201061GA1041+030001031GE19MSL   +99999+99999GF104991041999030001999999IA1009IA2999+02109KA1120M+03071KA2120N+02661MA1999999100681MD1010011+9999REMSYN004BUFR
0141875930999992019012915004-34960-057900FM-12+001599999V0203201N0036122000199010000199+03321+02471100821ADDAZ101031AZ201031GA1011+012001081GA2999+999999081GE19MSL   +99999+99999GF101991011999012001999999MA1999999100561MD1710121+9999REMSYN004BUFR
0158875930999992019012918004-34960-057900FM-12+002099999V0203401N0036122000199010000199+03421+02541100581ADDAA101999999AY191061AY201061GA1021+006001091GA2999+999999091GE19MSL   +99999+99999GF103991021999006001999999MA1999999100321MD1710241+9999MW1171REMSYN004BUFR
0163875930999992019012921004-34960-057900FM-12+002199999V0202001N0031101350199005000199+02401+02361100631ADDAY191031AY291031GA1031+002401071GA2011+013501091GA3081+013501051GE19MSL   +99999+99999GF108991031999002401999999MA1999999100371MD1310051+9999MW1951REMSYN004BUFR
0125875930999992019013009004-34960-057900FM-12+002199999V0203601N00001013501C9010000199+02251+02211100651ADDAZ101031AZ201031GA1071+013501051GE19MSL   +99999+99999GF107991071999013501999999MA1999999100381MD1810171+9999REMSYN004BUFR
0229875930999992019013012004-34960-057900FM-12+002199999V0203401N00211015001C9010000199+02461+02241100921ADDAA112010031AJ100033100028099AZ101061AZ201061GA1011+003001061GA2061+015001051GA3081+060001021GE19MSL   +99999+99999GF108991011999003001999999IA1109IA2999+02209KA1120M+02461KA2120N+02211MA1999999100651MD1210271+9999REMSYN004BUFR
0157875930999992019013015004-34960-057900FM-12+002199999V0202701N00311030001C9010000199+02601+02181100921ADDAZ101031AZ201031GA1011+005401061GA2051+030001041GA3071+060001021GE19MSL   +99999+99999GF107991011999005401999999MA1999999100661MD1310011+9999REMSYN004BUFR
0136875930999992019013018004-34960-057900FM-12+002199999V0202701N0036106000199010000199+03001+02401100841ADDAA101999999AZ101061AZ201061GA1061+060001001GE19MSL   +99999+99999GF106991061999060001999999MA1999999100581MD1810081+9999REMSYN004BUFR
0141875930999992019013021004-34960-057900FM-12+002199999V0202501N0031122000199010000199+03051+02391100721ADDAZ101031AZ201031GA1011+006001081GA2041+060001021GE19MSL   +99999+99999GF104991011999006001999999MA1999999100461MD1710121+9999REMSYN004BUFR
0162875930999992019013100004-34960-057900FM-12+002199999V0203601N0000122000199010000199+02551+02321100921ADDAA101999999AZ101061AZ201061GA1021+060001001GE19MSL   +99999+99999GF102991021999060001999999KA1120M+03101KA2120N+02441MA1999999100651MD1210191+9999REMSYN004BUFR
0093875930999992019013109004-34960-057900FM-12+002199999V0202001N0021122000199006000199+01511+01391101361ADDAY101031AY201031GF100991999999999999999999MA1999999101091MD1210121+9999MW1101REMSYN004BUFR
0154875930999992019013112004-34960-057900FM-12+002199999V0201601N0026122000199008000199+01951+01601101481ADDAJ100009100000099AY101061AY201061GF100991999999999999999999IA1009IA2999+01409KA1120M+02551KA2120N+01511MA1999999101211MD1210121+9999MW1101REMSYN004BUFR
0087875930999992019013115004-34960-057900FM-12+002199999V0200901N0021122000199010000199+02551+01821101431ADDAZ101031AZ201031GF100991999999999999999999MA1999999101161MD1710051+9999REMSYN004BUFR
0136875930999992019013118004-34960-057900FM-12+002199999V0200501N0041122000199010000199+02671+01951101281ADDAA101999999AZ101061AZ201061GA1011+030001031GE19MSL   +99999+99999GF101991011999030001999999MA1999999101011MD1710151+9999REMSYN004BUFR
0125875930999992019013121004-34960-057900FM-12+002199999V0200901N0041122000199010000199+02521+01911101081ADDAZ101031AZ201031GA1011+030001031GE19MSL   +99999+99999GF101991011999030001999999MA1999999100811MD1710201+9999REMSYN004BUFR
0162875930999992019020100004-34960-057900FM-12+002199999V0201401N0015122000199010000199+02171+01951101141ADDAA101999999AZ101061AZ201061GA1011+030001031GE19MSL   +99999+99999GF101991011999030001999999KA1120M+02681KA2120N+01951MA1999999100861MD1310051+9999REMSYN004BUFR
0141875930999992019020103004-34960-057900FM-12+002199999V0203601N00001060001C9010000199+02151+01971101161ADDAZ101031AZ201031GA1011+009001061GA2051+060001021GE19MSL   +99999+99999GF105991011999009001999999MA1999999100891MD1010021+9999REMSYN004BUFR
0152875930999992019020106004-34960-057900FM-12+002199999V0200201N0010122000199010000199+02351+02141101101ADDAA101999999AZ101061AZ201061GA1011+030001031GA2031+060001001GE19MSL   +99999+99999GF103991011999030001999999MA1999999100821MD1710071+9999REMSYN004BUFR
0125875930999992019020109004-34960-057900FM-12+002199999V0203601N0000106000199010000199+02201+02091101081ADDAZ101031AZ201031GA1071+060001021GE19MSL   +99999+99999GF107991071999060001999999MA1999999100811MD1610011+9999REMSYN004BUFR
0186875930999992019020112004-34960-057900FM-12+002199999V0202901N0015122000199010000199+02751+02351101221ADDAJ100009100000099AZ101061AZ201061GA1011+004501081GE19MSL   +99999+99999GF102991011999004501999999IA1009IA2999+01909KA1120M+02751KA2120N+02061MA1999999100941MD1210081+9999REMSYN004BUFR
0141875930999992019020115004-34960-057900FM-12+002199999V0202301N0021106000199010000199+03121+02361101181ADDAZ101031AZ201031GA1041+010501081GA2071+060001021GE19MSL   +99999+99999GF107991041999010501999999MA1999999100921MD1810031+9999REMSYN004BUFR
0168875930999992019020118004-34960-057900FM-12+000799999V0200201N0031106000199010000199+03051+02431101161ADDAA101999999AZ101061AZ201061GA1041+012001081GA2071+060001021GA3999+999999081GE19MSL   +99999+99999GF107991041999012001999999MA1999999100901MD1710011+9999REMSYN004BUFR
0203875930999992019020121004-34967-057900FM-12+002199999V0203201N00261060001CN010000199+02941+02341101061ADDGA1021+007501081GA2061+060001021GE19MSL   +99999+99999GF106991021999007501999999MA1999999100781MD1710121+9999REMSYN08287593 42560 63205 10294 20234 30078 40106 57012 82208 333 56308 57834 82825 86270=
0178875930999992019020200004-34960-057900FM-12+002199999V0200701N00311060001C9010000199+02601+02251101131ADDAA101999999AZ101061AZ201061GA1031+006001061GA2051+060001021GE19MSL   +99999+99999GF106991031999006001999999KA1120M+03271KA2120N+02531MA1999999100861MD1210081+9999REMSYN004BUFR
0147875930999992019020203004-34960-057900FM-12+002199999V0201101N00461060001C9010000199+02311+02221101421ADDAY111031AY211031GA1011+004501071GA2051+060001021GE19MSL   +99999+99999GF106991011999004501999999MA1999999101161MD1210291+9999MW1131REMSYN004BUFR
0174875930999992019020206004-34960-057900FM-12+002199999V0201401N0057106000199010000199+02151+01821101611ADDAA106999999AY161061AY221061GA1031+003901071GA2061+014101051GA3051+060001021GE19MSL   +99999+99999GF106991031999003901999999MA1999999101341MD1210191+9999MW1211REMSYN004BUFR
0087875930999992019020209004-34960-057900FM-12+002199999V0201801N0036122000199010000199+01701+01621101811ADDAZ101031AZ201031GF100991999999999999999999MA1999999101541MD1210201+9999REMSYN004BUFR
0148875930999992019020212004-34960-057900FM-12+002199999V0201801N0077122000199010000199+02071+01361102061ADDAJ100009100000099AZ101061AZ201061GF100991999999999999999999IA1009IA2999+01609KA1120M+02601KA2120N+01631MA1999999101801MD1210251+9999REMSYN004BUFR
0125875930999992019020215004-34960-057900FM-12+002199999V0201801N00671007501C9010000199+02301+01371102271ADDAZ101031AZ201031GA1051+007501081GE19MSL   +99999+99999GF105991051999007501999999MA1999999102001MD1210201+9999REMSYN004BUFR
0152875930999992019020218004-34960-057900FM-12+002199999V0201801N00621009001C9010000199+02251+01261102341ADDAA101999999AZ101061AZ201061GA1031+007501081GA2031+009001061GE19MSL   +99999+99999GF106991031999007501999999MA1999999102081MD1210081+9999REMSYN004BUFR
0141875930999992019020221004-34960-057900FM-12+000699999V0201601N0057122000199010000199+02201+01061102361ADDAZ101031AZ201031GA1021+006901081GA2999+999999081GE19MSL   +99999+99999GF102991021999006901999999MA1999999102091MD1310011+9999REMSYN004BUFR
0124875930999992019020300004-34960-057900FM-12+002199999V0201401N0041122000199010000199+01621+01141102491ADDAA101999999AZ101061AZ201061GF100991999999999999999999KA1120M+02451KA2120N+01631MA1999999102211MD1210121+9999REMSYN004BUFR
0087875930999992019020303004-34960-057900FM-12+002199999V0201801N0031122000199010000199+01421+01111102601ADDAZ101031AZ201031GF100991999999999999999999MA1999999102321MD1210151+9999REMSYN004BUFR
0136875930999992019020306004-34960-057900FM-12+002199999V0201801N0031122000199010000199+01201+01001102661ADDAA101999999AZ101061AZ201061GA1021+030001031GE19MSL   +99999+99999GF102991021999030001999999MA1999999102381MD1510001+9999REMSYN004BUFR
0087875930999992019020309004-34960-057900FM-12+002199999V0201801N0031122000199010000199+01051+01001102691ADDAZ101031AZ201031GF100991999999999999999999MA1999999102411MD1310031+9999REMSYN004BUFR
0148875930999992019020312004-34960-057900FM-12+002199999V0201801N0051122000199010000199+01661+01131102771ADDAJ100009100000099AZ101061AZ201061GF100991999999999999999999IA1009IA2999+00909KA1120M+01661KA2120N+01041MA1999999102491MD1210081+9999REMSYN004BUFR
0125875930999992019020315004-34960-057900FM-12+002199999V0200901N0026122000199010000199+02171+01251102711ADDAZ101031AZ201031GA1031+006001081GE19MSL   +99999+99999GF103991031999006001999999MA1999999102441MD1810051+9999REMSYN004BUFR
0136875930999992019020318004-34960-057900FM-12+002199999V0201401N0021122000199010000199+02351+01191102571ADDAA101999999AZ101061AZ201061GA1041+006001081GE19MSL   +99999+99999GF104991041999006001999999MA1999999102291MD1710151+9999REMSYN004BUFR
0125875930999992019020321004-34960-057900FM-12+002199999V0201101N0041122000199010000199+02211+01231102491ADDAZ101031AZ201031GA1031+006001081GE19MSL   +99999+99999GF103991031999006001999999MA1999999102211MD1610081+9999REMSYN004BUFR
0124875930999992019020400004-34960-057900FM-12+002199999V0201401N0026122000199010000199+01651+01221102501ADDAA101999999AZ101061AZ201061GF100991999999999999999999KA1120M+02451KA2120N+01651MA1999999102221MD1110011+9999REMSYN004BUFR
0087875930999992019020403004-34960-057900FM-12+002199999V0201401N0021122000199010000199+01461+01111102561ADDAZ101031AZ201031GF100991999999999999999999MA1999999102281MD1110051+9999REMSYN004BUFR
0098875930999992019020406004-34960-057900FM-12+002199999V0203601N0000122000199010000199+01301+01131102431ADDAA101999999AZ101061AZ201061GF100991999999999999999999MA1999999102161MD1810121+9999REMSYN004BUFR
0141875930999992019020409004-34960-057900FM-12+000699999V0201801N0010122000199010000199+01161+01081102431ADDAZ101031AZ201031GA1011+007501081GA2999+999999081GE19MSL   +99999+99999GF101991011999007501999999MA1999999102161MD1410001+9999REMSYN004BUFR
0202875930999992019020412004-34960-057900FM-12+001299999V0201401N0015122000199010000199+02151+01371102521ADDAJ100009100000099AZ101061AZ201061GA1011+007501081GA2999+999999081GE19MSL   +99999+99999GF101991011999007501999999IA1009IA2999+00809KA1120M+02141KA2120N+01161MA1999999102251MD1210091+9999REMSYN004BUFR
0125875930999992019020415004-34960-057900FM-12+002199999V0201601N0015122000199010000199+02361+01341102521ADDAZ101031AZ201031GA1041+009001081GE19MSL   +99999+99999GF104991041999009001999999MA1999999102251MD1410001+9999REMSYN004BUFR
0136875930999992019020418004-34960-057900FM-12+002199999V0200501N0031122000199010000199+02451+01581102381ADDAA101999999AZ101061AZ201061GA1031+009001081GE19MSL   +99999+99999GF103991031999009001999999MA1999999102121MD1710131+9999REMSYN004BUFR
0087875930999992019020421004-34960-057900FM-12+002199999V0200901N0036122000199010000199+02371+01301102261ADDAZ101031AZ201031GF100991999999999999999999MA1999999101981MD1710131+9999REMSYN004BUFR
0124875930999992019020500004-34960-057900FM-12+002199999V0201101N0010122000199010000199+01861+01201102241ADDAA101999999AZ101061AZ201061GF100991999999999999999999KA1120M+02531KA2120N+01801MA1999999101971MD1610011+9999REMSYN004BUFR
0087875930999992019020503004-34960-057900FM-12+002199999V0203601N0000122000199010000199+01571+01441102281ADDAZ101031AZ201031GF100991999999999999999999MA1999999102011MD1310041+9999REMSYN004BUFR
0098875930999992019020506004-34960-057900FM-12+002199999V0203601N0000122000199010000199+01471+01391102181ADDAA101999999AZ101061AZ201061GF100991999999999999999999MA1999999101921MD1810091+9999REMSYN004BUFR
0093875930999992019020509004-34960-057900FM-12+002199999V0203601N0000122000199010000199+01361+01361102161ADDAY141031AY201031GF100991999999999999999999MA1999999101891MD1510031+9999MW1111REMSYN004BUFR
0208875930999992019020512004-34960-057900FM-12+000699999V0200501N0021122000199010000199+02161+01691102221ADDAJ100009100000099AY141061AY201061GA1021+005401081GA2999+999999081GE19MSL   +99999+99999GF102991021999005401999999IA1009IA2999+01009KA1120M+02161KA2120N+01301MA1999999101961MD1210071+9999MW1031REMSYN004BUFR
0089875930999992019020515004-34967-057900FM-12+002199999V0200501N003119999999N010000199+02421+01401102191ADDMA1999999101921MD1710041+9999REMSYN04887593 42960 00506 10242 20140 30192 40219 57004=
0089875930999992019020518004-34967-057900FM-12+002199999V0200901N002619999999N010000199+02531+01451102021ADDMA1999999101761MD1710161+9999REMSYN04887593 32960 00905 10253 20145 30176 40202 57016=
0089875930999992019020521004-34967-057900FM-12+002199999V0200701N004119999999N010000199+02571+01601101801ADDMA1999999101531MD1710231+9999REMSYN04887593 42960 00708 10257 20160 30153 40180 57023=
0131875930999992019020600004-34967-057900FM-12+002199999V0200901N001019999999N010000199+02021+01761101791ADDKA1120M+02601KA2120N+02021MA1999999101521MD1610011+9999REMSYN06487593 32960 00902 10202 20176 30152 40179 56001 333 10260 20202=
0089875930999992019020603004-34967-057900FM-12+002199999V0200901N001519999999N010000199+01891+01811101801ADDMA1999999101531MD1110011+9999REMSYN04887593 42960 00903 10189 20181 30153 40180 51001=
0089875930999992019020606004-34967-057900FM-12+002199999V0209999C000019999999N010000199+01851+01821101671ADDMA1999999101401MD1610131+9999REMSYN04887593 32960 00000 10185 20182 30140 40167 56013=
0087875930999992019020609004-34467-057883FM-12+002199999V0200501N0010122000199010000199+02011+01701101671ADDAZ101031AZ201031GF100991999999999999999999MA1999999101401MD1510001+9999REMSYN004BUFR
0148875930999992019020612004-34467-057883FM-12+002199999V0203601N0031122000199010000199+02351+01821101771ADDAJ100009100000099AZ101061AZ201061GF100991999999999999999999IA1009IA2999+01509KA1120M+02341KA2120N+01801MA1999999101501MD1210111+9999REMSYN004BUFR
0141875930999992019020615004-34467-057883FM-12+000999999V0200901N0031122000199010000199+02621+01601101661ADDAZ101031AZ201031GA1021+005401081GA2999+999999081GE19MSL   +99999+99999GF102991021999005401999999MA1999999101381MD1710121+9999REMSYN004BUFR
0136875930999992019020618004-34467-057883FM-12+002199999V0200901N0031122000199010000199+02701+01471101481ADDAA101999999AZ101061AZ201061GA1011+005401081GE19MSL   +99999+99999GF101991011999005401999999MA1999999101211MD1710171+9999REMSYN004BUFR
0087875930999992019020621004-34467-057883FM-12+002199999V0200701N0036122000199010000199+02661+01691101251ADDAZ101031AZ201031GF100991999999999999999999MA1999999100981MD1710231+9999REMSYN004BUFR
0087875930999992019020703004-34467-057883FM-12+002199999V0200901N0015122000199010000199+02271+02081101201ADDAZ101031AZ201031GF100991999999999999999999MA1999999100931MD1210031+9999REMSYN004BUFR
0098875930999992019020706004-34467-057883FM-12+002199999V0203601N0000122000199010000199+01901+01821101151ADDAA101999999AZ101061AZ201061GF100991999999999999999999MA1999999100881MD1810051+9999REMSYN004BUFR
0125875930999992019020709004-34467-057883FM-12+002199999V0203601N00001030001C9010000199+02201+02011101161ADDAZ101031AZ201031GA1051+030001031GE19MSL   +99999+99999GF105991051999030001999999MA1999999100891MD1310011+9999REMSYN004BUFR
0186875930999992019020712004-34467-057883FM-12+002199999V0200201N0031122000199010000199+02451+02121101181ADDAJ100009100000099AZ101061AZ201061GA1011+004501081GE19MSL   +99999+99999GF102991011999004501999999IA1009IA2999+01609KA1120M+02451KA2120N+01881MA1999999100901MD1210011+9999REMSYN004BUFR
0141875930999992019020715004-34467-057883FM-12+001299999V0200501N0021122000199010000199+02901+01831101151ADDAZ101031AZ201031GA1031+008401081GA2999+999999081GE19MSL   +99999+99999GF103991031999008401999999MA1999999100881MD1810031+9999REMSYN004BUFR
0136875930999992019020718004-34467-057883FM-12+002199999V0200501N0026122000199010000199+02971+01701100981ADDAA101999999AZ101061AZ201061GA1011+007501081GE19MSL   +99999+99999GF102991011999007501999999MA1999999100701MD1710171+9999REMSYN004BUFR
0125875930999992019020721004-34467-057883FM-12+002199999V0200501N0021122000199010000199+02821+01771100831ADDAZ101031AZ201031GA1011+060001001GE19MSL   +99999+99999GF101991011999060001999999MA1999999100571MD1710131+9999REMSYN004BUFR
0124875930999992019020800004-34467-057883FM-12+002199999V0200901N0026122000199010000199+02401+01991100891ADDAA101999999AZ101061AZ201061GF100991999999999999999999KA1120M+03001KA2120N+02391MA1999999100621MD1310051+9999REMSYN004BUFR
0087875930999992019020803004-34467-057883FM-12+002199999V0200901N0026122000199010000199+02311+02191100911ADDAZ101031AZ201031GF100991999999999999999999MA1999999100651MD1110031+9999REMSYN004BUFR
0136875930999992019020806004-34467-057883FM-12+002199999V0201801N0021122000199010000199+02101+02081101031ADDAA101999999AZ101061AZ201061GA1031+030001031GE19MSL   +99999+99999GF103991031999030001999999MA1999999100761MD1210111+9999REMSYN004BUFR
0131875930999992019020809004-34467-057883FM-12+002199999V0200201N0021122000199009000199+02201+02191100841ADDAY101031AY201031GA1031+030001031GE19MSL   +99999+99999GF103991031999030001999999MA1999999100581MD1710171+9999MW1101REMSYN004BUFR
0148875930999992019020812004-34467-057883FM-12+002199999V0203401N0026122000199010000199+02621+01961100991ADDAJ100009100000099AZ101061AZ201061GF100991999999999999999999IA1009IA2999+01909KA1120M+02631KA2120N+02101MA1999999100721MD1210131+9999REMSYN004BUFR
0141875930999992019020815004-34467-057883FM-12+002199999V0203601N0051122000199010000199+03071+01921100941ADDAZ101031AZ201031GA1021+007501081GA2999+999999081GE19MSL   +99999+99999GF102991021999007501999999MA1999999100681MD1710041+9999REMSYN004BUFR
0168875930999992019020818004-34467-057883FM-12+002199999V0203601N00461060001C9010000199+03151+01771100861ADDAA101999999AZ101061AZ201061GA1021+007501081GA2051+060001021GA3999+999999081GE19MSL   +99999+99999GF105991021999007501999999MA1999999100601MD1710081+9999REMSYN004BUFR
0157875930999992019020821004-34467-057883FM-12+002199999V0203601N00211060001C9010000199+03101+01801100721ADDAZ101031AZ201031GA1011+007501081GA2051+060001021GA3999+999999081GE19MSL   +99999+99999GF105991011999007501999999MA1999999100461MD1710131+9999REMSYN004BUFR
0200875930999992019020900004-34467-057883FM-12+002199999V0200201N0067101350199005000199+02151+02021100941ADDAA106008031AY191061AY221061GA1031+012001091GA2081+013501051GA3999+999999091GE19MSL   +99999+99999GF108991031999012001999999KA1120M+03301KA2120N+02141MA1999999100661MD1310201+9999MW1971REMSYN004BUFR
0131875930999992019020903004-34467-057883FM-12+002199999V0200901N0015122000199010000199+02121+02041100961ADDAY191031AY201031GA1011+013501051GE19MSL   +99999+99999GF101991011999013501999999MA1999999100701MD1010041+9999MW1011REMSYN004BUFR
0142875930999992019020906004-34467-057883FM-12+002199999V0201801N00211003001C9005000199+02001+01981100911ADDAA106012031AY191061AY211061GA1081+003001071GE19MSL   +99999+99999GF108991081999003001999999MA1999999100651MD1510051+9999MW1101REMSYN004BUFR
0141875930999992019020909004-34467-057883FM-12+002199999V0203601N00001060001C9010000199+02101+02081100891ADDAZ101031AZ201031GA1031+030001031GA2031+060001001GE19MSL   +99999+99999GF106991031999030001999999MA1999999100621MD1510031+9999REMSYN004BUFR
0224875930999992019020912004-34467-057883FM-12+002199999V0201801N0021106000199007000199+02361+02331100931ADDAJ100023100020099AY121061AY211061GA1011+007501081GA2031+030001031GA3071+060001021GE19MSL   +99999+99999GF107991011999007501999999IA1109IA2999+01909KA1120M+02361KA2120N+01931MA1999999100661MD1110041+9999MW1101REMSYN004BUFR
0157875930999992019020915004-34467-057883FM-12+000699999V0200501N0015199999999010000199+02901+02451100901ADDAZ101031AZ201031GA1011+006001081GA2031+060001021GA3999+999999081GE19MSL   +99999+99999GF105991011999006001999999MA1999999100621MD1710041+9999REMSYN004BUFR
0152875930999992019020918004-34467-057883FM-12+001599999V0203201N0026122000199010000199+03161+02131100751ADDAA101999999AZ101061AZ201061GA1031+009001081GA2999+999999081GE19MSL   +99999+99999GF104991031999009001999999MA1999999100491MD1710131+9999REMSYN004BUFR
0157875930999992019020921004-34467-057883FM-12+001599999V0203401N0026122000199010000199+03101+02301100601ADDAZ101031AZ201031GA1011+009001081GA2041+060001001GA3999+999999081GE19MSL   +99999+99999GF104991011999009001999999MA1999999100341MD1710151+9999REMSYN004BUFR
0124875930999992019021000004-34467-057883FM-12+002199999V0201401N0010122000199010000199+02351+01871100661ADDAA101999999AZ101061AZ201061GF100991999999999999999999KA1120M+03201KA2120N+02341MA1999999100381MD1310041+9999REMSYN004BUFR
0087875930999992019021003004-34467-057883FM-12+002199999V0203601N0000122000199010000199+02101+01771100781ADDAZ101031AZ201031GF100991999999999999999999MA1999999100521MD1110131+9999REMSYN004BUFR
0098875930999992019021006004-34467-057883FM-12+002199999V0203601N0000122000199010000199+01951+01841100681ADDAA101999999AZ101061AZ201061GF100991999999999999999999MA1999999100421MD1810091+9999REMSYN004BUFR
0087875930999992019021009004-34467-057883FM-12+002199999V0203601N0000122000199010000199+01801+01781100641ADDAZ101031AZ201031GF100991999999999999999999MA1999999100381MD1610041+9999REMSYN004BUFR
0154875930999992019021012004-34467-057883FM-12+002199999V0203601N0000122000199006000199+02611+02341100641ADDAJ100009100000099AY101061AY201061GF100991999999999999999999IA1009IA2999+01509KA1120M+02611KA2120N+01741MA1999999100381MD1010001+9999MW1101REMSYN004BUFR
0087875930999992019021015004-34467-057883FM-12+002199999V0203401N0057122000199010000199+03151+02131100531ADDAZ101031AZ201031GF100991999999999999999999MA1999999100261MD1710121+9999REMSYN004BUFR
0152875930999992019021018004-34467-057883FM-12+002199999V0203601N0036122000199010000199+03321+02191100311ADDAA101999999AZ101061AZ201061GA1011+007501081GA2999+999999081GE19MSL   +99999+99999GF102991011999007501999999MA1999999100051MD1710211+9999REMSYN004BUFR
0125875930999992019021021004-34467-057883FM-12+002199999V0203601N0021122000199010000199+03151+02131100081ADDAZ101031AZ201031GA1021+060001021GE19MSL   +99999+99999GF102991021999060001999999MA1999999099821MD1710231+9999REMSYN004BUFR
0184875930999992019021100004-34467-057883FM-12+002199999V0203201N0021122000199010000199+02861+02151100161ADDAA101999999AY101061AY201061GA1011+010501091GA2999+999999091GE19MSL   +99999+99999GF102991011999010501999999KA1120M+03351KA2120N+02611MA1999999099901MD1310081+9999MW1131REMSYN004BUFR
0147875930999992019021103004-34467-057883FM-12+002199999V0202901N0010122000199010000199+02551+02201100231ADDAY101031AY201031GA1021+010501091GA2999+999999091GE19MSL   +99999+99999GF102991021999010501999999MA1999999099971MD1110071+9999MW1131REMSYN004BUFR
0158875930999992019021106004-34467-057883FM-12+002199999V0201801N0041122000199010000199+02161+02051100191ADDAA101999999AY191061AY201061GA1031+012001091GA2999+999999091GE19MSL   +99999+99999GF103991031999012001999999MA1999999099931MD1810041+9999MW1171REMSYN004BUFR
0125875930999992019021109004-34467-057883FM-12+002199999V0201801N00511030001C9010000199+01951+01891100371ADDAZ101031AZ201031GA1051+030001031GE19MSL   +99999+99999GF105991051999030001999999MA1999999100101MD1110171+9999REMSYN004BUFR
0251875930999992019021112004-34467-057883FM-12+002199999V0202301N0051101350199008000199+01871+01821100811ADDAA106006031AJ100013100006099AY191061AY261061GA1011+001201071GA2011+013501091GA3081+013501051GA4999+999999091GE19MSL   +99999+99999GF108991011999001201999999IA1109IA2999+01909KA1120M+02861KA2120N+01871MA1999999100541MD1210441+9999MW1951REMSYN004BUFR
0131875930999992019021115004-34467-057883FM-12+002199999V0201601N00511013501C9010000199+01861+01631100871ADDAY191031AY261031GA1071+013501051GE19MSL   +99999+99999GF107991071999013501999999MA1999999100601MD1010051+9999MW1211REMSYN004BUFR
0158875930999992019021118004-34467-057883FM-12+002199999V0201801N00621030001C9010000199+02261+01611101171ADDAA106001031AY191061AY261061GA1051+003601061GA2051+030001031GE19MSL   +99999+99999GF107991051999003601999999MA1999999100901MD1210311+9999MW1021REMSYN004BUFR
0125875930999992019021121004-34467-057883FM-12+002199999V0201801N00931005401C9010000199+02151+01101101481ADDAZ101031AZ201031GA1051+005401061GE19MSL   +99999+99999GF105991051999005401999999MA1999999101211MD1210311+9999REMSYN004BUFR
0162875930999992019021200004-34467-057883FM-12+002199999V0201801N0051122000199010000199+01621+00881101851ADDAA101999999AZ101061AZ201061GA1011+005401061GE19MSL   +99999+99999GF101991011999005401999999KA1120M+02401KA2120N+01631MA1999999101581MD1210371+9999REMSYN004BUFR
0087875930999992019021203004-34467-057883FM-12+002199999V0201801N0026122000199010000199+01271+00971102231ADDAZ101031AZ201031GF100991999999999999999999MA1999999101961MD1210371+9999REMSYN004BUFR
0098875930999992019021206004-34467-057883FM-12+002199999V0202301N0036122000199010000199+01121+00971102361ADDAA101999999AZ101061AZ201061GF100991999999999999999999MA1999999102081MD1110121+9999REMSYN004BUFR
0087875930999992019021209004-34467-057883FM-12+002199999V0202001N0026122000199010000199+00971+00841102481ADDAZ101031AZ201031GF100991999999999999999999MA1999999102201MD1310121+9999REMSYN004BUFR
0148875930999992019021212004-34467-057883FM-12+002199999V0202001N0041122000199010000199+01371+00801102681ADDAJ100003100001099AZ101061AZ201061GF100991999999999999999999IA1009IA2999+00809KA1120M+01631KA2120N+00951MA1999999102401MD1210201+9999REMSYN004BUFR
0125875930999992019021215004-34467-057883FM-12+002199999V0201801N0077122000199010000199+01851+00571102811ADDAZ101031AZ201031GA1011+005401081GE19MSL   +99999+99999GF101991011999005401999999MA1999999102531MD1210131+9999REMSYN004BUFR
0136875930999992019021218004-34467-057883FM-12+002199999V0201401N0046122000199010000199+02071+00651102661ADDAA101999999AZ101061AZ201061GA1011+005401081GE19MSL   +99999+99999GF101991011999005401999999MA1999999102381MD1710151+9999REMSYN004BUFR
0125875930999992019021221004-34467-057883FM-12+002199999V0201801N0036122000199010000199+02051+00741102521ADDAZ101031AZ201031GA1011+005401081GE19MSL   +99999+99999GF101991011999005401999999MA1999999102241MD1710151+9999REMSYN004BUFR
0124875930999992019021300004-34467-057883FM-12+002199999V0203601N0000122000199010000199+01551+01011102471ADDAA101999999AZ101061AZ201061GF100991999999999999999999KA1120M+02141KA2120N+01371MA1999999102201MD1710041+9999REMSYN004BUFR
0087875930999992019021303004-34467-057883FM-12+002199999V0203601N0000122000199010000199+01271+01121102441ADDAZ101031AZ201031GF100991999999999999999999MA1999999102161MD1810041+9999REMSYN004BUFR
0098875930999992019021306004-34467-057883FM-12+002199999V0203601N0000122000199010000199+01061+00901102301ADDAA101999999AZ101061AZ201061GF100991999999999999999999MA1999999102021MD1710131+9999REMSYN004BUFR
0125875930999992019021309004-34467-057883FM-12+002199999V0203601N0000122000199010000199+01251+01111102301ADDAZ101031AZ201031GA1041+030001031GE19MSL   +99999+99999GF104991041999030001999999MA1999999102021MD1510001+9999REMSYN004BUFR
0186875930999992019021312004-34467-057883FM-12+002199999V0200501N0010122000199010000199+01801+01321102331ADDAJ100009100000099AZ101061AZ201061GA1011+005401061GE19MSL   +99999+99999GF102991011999005401999999IA1009IA2999+00709KA1120M+01791KA2120N+01031MA1999999102051MD1110031+9999REMSYN004BUFR
0141875930999992019021315004-34467-057883FM-12+000999999V0200501N0036122000199010000199+02161+01281102241ADDAZ101031AZ201031GA1031+007501081GA2999+999999081GE19MSL   +99999+99999GF103991031999007501999999MA1999999101961MD1710091+9999REMSYN004BUFR
0136875930999992019021318004-34467-057883FM-12+002199999V0200701N0026122000199010000199+02221+01051102021ADDAA101999999AZ101061AZ201061GA1011+006001081GE19MSL   +99999+99999GF101991011999006001999999MA1999999101741MD1710211+9999REMSYN004BUFR
0125875930999992019021321004-34467-057883FM-12+002199999V0200701N0015122000199010000199+02221+00801101871ADDAZ101031AZ201031GA1011+030001031GE19MSL   +99999+99999GF101991011999030001999999MA1999999101601MD1710151+9999REMSYN004BUFR
0162875930999992019021400004-34467-057883FM-12+002199999V0200701N00101030001C9010000199+01901+01211101911ADDAA101999999AZ101061AZ201061GA1071+030001031GE19MSL   +99999+99999GF107991071999030001999999KA1120M+02351KA2120N+01791MA1999999101641MD1110041+9999REMSYN004BUFR
0125875930999992019021403004-34467-057883FM-12+002199999V0200901N00151030001C9010000199+01821+01331101841ADDAZ101031AZ201031GA1071+030001031GE19MSL   +99999+99999GF107991071999030001999999MA1999999101571MD1810071+9999REMSYN004BUFR
0136875930999992019021406004-34467-057883FM-12+002199999V0200701N00311030001C9010000199+02001+01481101651ADDAA101999999AZ101061AZ201061GA1071+030001031GE19MSL   +99999+99999GF107991071999030001999999MA1999999101381MD1710191+9999REMSYN004BUFR
0131875930999992019021409004-34467-057883FM-12+002199999V0200701N00151015001C9008000199+01901+01621101661ADDAY161031AY221031GA1081+015001051GE19MSL   +99999+99999GF108991081999015001999999MA1999999101381MD1510001+9999MW1601REMSYN004BUFR
0203875930999992019021412004-34467-057883FM-12+002199999V0202701N00211013501C9005000199+01671+01631101821ADDAA106005031AJ100013100005099AY161061AY221061GA1081+013501051GE19MSL   +99999+99999GF108991081999013501999999IA1109IA2999+01609KA1120M+02021KA2120N+01681MA1999999101561MD1210171+9999MW1631REMSYN004BUFR
0131875930999992019021415004-34467-057883FM-12+002199999V0203601N00151013501C9007000199+01771+01651101911ADDAY161031AY221031GA1081+013501051GE19MSL   +99999+99999GF108991081999013501999999MA1999999101641MD1310081+9999MW1601REMSYN004BUFR
0142875930999992019021418004-34467-057883FM-12+002199999V0202301N00311030001C9010000199+02021+01231101791ADDAA106003031AY161061AY221061GA1071+030001031GE19MSL   +99999+99999GF107991071999030001999999MA1999999101521MD1810121+9999MW1011REMSYN004BUFR
0125875930999992019021421004-34467-057883FM-12+002199999V0200901N00261030001C9010000199+01901+01521101641ADDAZ101031AZ201031GA1081+030001031GE19MSL   +99999+99999GF108991081999030001999999MA1999999101371MD1710151+9999REMSYN004BUFR
0162875930999992019021500004-34467-057883FM-12+002199999V0203601N0000122000199010000199+01661+01541101671ADDAA101999999AZ101061AZ201061GA1041+030001031GE19MSL   +99999+99999GF104991041999030001999999KA1120M+02051KA2120N+01661MA1999999101401MD1310031+9999REMSYN004BUFR
0125875930999992019021503004-34467-057883FM-12+002199999V0203601N0000122000199010000199+01561+01441101741ADDAZ101031AZ201031GA1041+030001031GE19MSL   +99999+99999GF104991041999030001999999MA1999999101461MD1110071+9999REMSYN004BUFR
0098875930999992019021506004-34467-057883FM-12+002199999V0203601N0000122000199010000199+01351+01331101651ADDAA101999999AZ101061AZ201061GF100991999999999999999999MA1999999101381MD1810081+9999REMSYN004BUFR
0093875930999992019021509004-34467-057883FM-12+002199999V0203601N0000122000199006000199+01301+01301101681ADDAY101031AY201031GF100991999999999999999999MA1999999101401MD1110011+9999MW1101REMSYN004BUFR
0186875930999992019021512004-34467-057883FM-12+002199999V0202301N0015122000199010000199+02021+01841101771ADDAJ100003100003099AZ101061AZ201061GA1011+005401081GE19MSL   +99999+99999GF101991011999005401999999IA1009IA2999+01109KA1120M+02031KA2120N+01231MA1999999101501MD1210111+9999REMSYN004BUFR
0125875930999992019021515004-34467-057883FM-12+002199999V0201801N0021122000199010000199+02521+01381101731ADDAZ101031AZ201031GA1011+005401081GE19MSL   +99999+99999GF101991011999005401999999MA1999999101461MD1610041+9999REMSYN004BUFR
0136875930999992019021518004-34467-057883FM-12+002199999V0201401N0031122000199010000199+02751+01391101631ADDAA101999999AZ101061AZ201061GA1011+006001081GE19MSL   +99999+99999GF101991011999006001999999MA1999999101361MD1710111+9999REMSYN004BUFR
0087875930999992019021521004-34467-057883FM-12+002199999V0200501N0036122000199010000199+02461+01781101621ADDAZ101031AZ201031GF100991999999999999999999MA1999999101361MD1510001+9999REMSYN004BUFR
0124875930999992019021600004-34467-057883FM-12+002199999V0203601N0000122000199010000199+01971+01721101671ADDAA101999999AZ101061AZ201061GF100991999999999999999999KA1120M+02801KA2120N+01981MA1999999101401MD1110041+9999REMSYN004BUFR
0087875930999992019021603004-34467-057883FM-12+002199999V0203601N0000122000199010000199+01751+01671101701ADDAZ101031AZ201031GF100991999999999999999999MA1999999101441MD1110051+9999REMSYN004BUFR
0098875930999992019021606004-34467-057883FM-12+002199999V0203601N0000122000199010000199+01521+01511101671ADDAA101999999AZ101061AZ201061GF100991999999999999999999MA1999999101401MD1810041+9999REMSYN004BUFR
0093875930999992019021609004-34467-057883FM-12+002199999V0203601N0000122000199010000199+01501+01491101701ADDAY141031AY241031GF100991999999999999999999MA1999999101441MD1310041+9999MW1111REMSYN004BUFR
0154875930999992019021612004-34467-057883FM-12+002199999V0203601N0015122000199010000199+02221+01791101851ADDAJ100009100000099AY141061AY201061GF100991999999999999999999IA1009IA2999+01109KA1120M+02221KA2120N+01401MA1999999101581MD1210151+9999MW1021REMSYN004BUFR
0087875930999992019021615004-34467-057883FM-12+002199999V0203601N0026122000199010000199+02661+01621101831ADDAZ101031AZ201031GF100991999999999999999999MA1999999101561MD1810031+9999REMSYN004BUFR
0098875930999992019021618004-34467-057883FM-12+002199999V0200501N0026122000199010000199+02761+01431101701ADDAA101999999AZ101061AZ201061GF100991999999999999999999MA1999999101441MD1710121+9999REMSYN004BUFR
0087875930999992019021621004-34467-057883FM-12+002199999V0200701N0036122000199010000199+02701+01411101591ADDAZ101031AZ201031GF100991999999999999999999MA1999999101321MD1710121+9999REMSYN004BUFR
0124875930999992019021700004-34467-057883FM-12+002199999V0200901N0015122000199010000199+02171+01781101611ADDAA101999999AZ101061AZ201061GF100991999999999999999999KA1120M+02761KA2120N+02181MA1999999101341MD1310031+9999REMSYN004BUFR
0087875930999992019021703004-34467-057883FM-12+002199999V0203601N0000122000199010000199+02001+01831101661ADDAZ101031AZ201031GF100991999999999999999999MA1999999101381MD1110041+9999REMSYN004BUFR
0098875930999992019021706004-34467-057883FM-12+002199999V0203601N0000122000199010000199+01901+01831101571ADDAA101999999AZ101061AZ201061GF100991999999999999999999MA1999999101301MD1710081+9999REMSYN004BUFR
0087875930999992019021709004-34467-057883FM-12+002199999V0203601N0015122000199010000199+01971+01901101541ADDAZ101031AZ201031GF100991999999999999999999MA1999999101281MD1610031+9999REMSYN004BUFR
0186875930999992019021712004-34467-057883FM-12+002199999V0203601N0026122000199010000199+02401+02041101691ADDAJ100009100000099AZ101061AZ201061GA1021+004801081GE19MSL   +99999+99999GF102991021999004801999999IA1009IA2999+01509KA1120M+02411KA2120N+01791MA1999999101421MD1210161+9999REMSYN004BUFR
0125875930999992019021715004-34467-057883FM-12+002199999V0203601N0026122000199010000199+02701+01961101611ADDAZ101031AZ201031GA1011+006001081GE19MSL   +99999+99999GF101991011999006001999999MA1999999101341MD1710081+9999REMSYN004BUFR
0098875930999992019021718004-34467-057883FM-12+002199999V0200501N0031122000199010000199+02901+01601101401ADDAA101999999AZ101061AZ201061GF100991999999999999999999MA1999999101131MD1710211+9999REMSYN004BUFR
0087875930999992019021721004-34467-057883FM-12+002199999V0200501N0026122000199010000199+02771+01861101291ADDAZ101031AZ201031GF100991999999999999999999MA1999999101021MD1610111+9999REMSYN004BUFR
0124875930999992019021800004-34467-057883FM-12+002199999V0200901N0010122000199010000199+02271+02101101351ADDAA101999999AZ101061AZ201061GF100991999999999999999999KA1120M+02901KA2120N+02281MA1999999101081MD1310051+9999REMSYN004BUFR
0093875930999992019021803004-34467-057883FM-12+002199999V0203601N0000122000199010000199+02101+02091101311ADDAY141031AY201031GF100991999999999999999999MA1999999101041MD1810041+9999MW1111REMSYN004BUFR
0104875930999992019021806004-34467-057883FM-12+002199999V0200501N0026122000199010000199+02271+01991101181ADDAA101999999AY141061AY201061GF100991999999999999999999MA1999999100901MD1710131+9999MW1021REMSYN004BUFR
0087875930999992019021809004-34467-057883FM-12+002199999V0200201N0026122000199010000199+02211+01951101161ADDAZ101031AZ201031GF100991999999999999999999MA1999999100891MD1710011+9999REMSYN004BUFR
0148875930999992019021812004-34467-057883FM-12+002199999V0200501N0026122000199010000199+02411+02001101221ADDAJ100009100000099AZ101061AZ201061GF100991999999999999999999IA1009IA2999+01709KA1120M+02411KA2120N+01981MA1999999100941MD1110051+9999REMSYN004BUFR
0087875930999992019021815004-34467-057883FM-12+002199999V0203601N0036122000199010000199+02771+02121101171ADDAZ101031AZ201031GF100991999999999999999999MA1999999100901MD1810041+9999REMSYN004BUFR
0152875930999992019021818004-34467-057883FM-12+003099999V0203201N0031122000199010000199+02961+02071100901ADDAA101999999AZ101061AZ201061GA1021+007501081GA2999+999999081GE19MSL   +99999+99999GF102991021999007501999999MA1999999100641MD1710271+9999REMSYN004BUFR
0087875930999992019021821004-34467-057883FM-12+002199999V0203601N0057122000199010000199+02971+01761100721ADDAZ101031AZ201031GF100991999999999999999999MA1999999100461MD1710171+9999REMSYN004BUFR
0124875930999992019021900004-34467-057883FM-12+002199999V0200501N0015122000199010000199+02551+02201100761ADDAA101999999AZ101061AZ201061GF100991999999999999999999KA1120M+03051KA2120N+02411MA1999999100501MD1310041+9999REMSYN004BUFR
0087875930999992019021903004-34467-057883FM-12+002199999V0203601N0015122000199010000199+02451+02191100851ADDAZ101031AZ201031GF100991999999999999999999MA1999999100581MD1210081+9999REMSYN004BUFR
0158875930999992019021906004-34467-057883FM-12+002199999V0203601N0015122000199010000199+02361+02141100781ADDAA101999999AY101061AY201061GA1011+010501091GA2999+999999091GE19MSL   +99999+99999GF101991011999010501999999MA1999999100521MD1810071+9999MW1131REMSYN004BUFR
0141875930999992019021909004-34467-057883FM-12+000999999V0201401N0041122000199010000199+02201+01841100961ADDAZ101031AZ201031GA1031+009001081GA2999+999999081GE19MSL   +99999+99999GF103991031999009001999999MA1999999100701MD1210191+9999REMSYN004BUFR
0186875930999992019021912004-34467-057883FM-12+002199999V0200501N0031122000199010000199+02571+02071100911ADDAJ100009100000099AZ101061AZ201061GA1011+060001001GE19MSL   +99999+99999GF101991011999060001999999IA1009IA2999+01909KA1120M+02581KA2120N+02091MA1999999100651MD1710051+9999REMSYN004BUFR
0125875930999992019021915004-34467-057883FM-12+002199999V0203401N0026122000199010000199+02971+02221100781ADDAZ101031AZ201031GA1011+006001081GE19MSL   +99999+99999GF101991011999006001999999MA1999999100521MD1710131+9999REMSYN004BUFR
0152875930999992019021918004-34467-057883FM-12+000999999V0200201N0031122000199010000199+03271+02321100611ADDAA101999999AZ101061AZ201061GA1031+009001081GA2999+999999081GE19MSL   +99999+99999GF103991031999009001999999MA1999999100341MD1710171+9999REMSYN004BUFR
0141875930999992019021921004-34467-057883FM-12+001599999V0203601N0021122000199010000199+03201+02301100501ADDAZ101031AZ201031GA1021+009001081GA2999+999999081GE19MSL   +99999+99999GF102991021999009001999999MA1999999100241MD1710111+9999REMSYN004BUFR
0124875930999992019022000004-34467-057883FM-12+002199999V0203601N0000122000199010000199+02721+02391100631ADDAA101999999AZ101061AZ201061GF100991999999999999999999KA1120M+03351KA2120N+02581MA1999999100371MD1210131+9999REMSYN004BUFR
0125875930999992019022003004-34467-057883FM-12+002199999V0203601N0000122000199010000199+02501+02191100751ADDAZ101031AZ201031GA1011+030001031GE19MSL   +99999+99999GF101991011999030001999999MA1999999100491MD1210121+9999REMSYN004BUFR
0136875930999992019022006004-34467-057883FM-12+002199999V0203601N0000122000199010000199+02421+02131100771ADDAA101999999AZ101061AZ201061GA1021+030001031GE19MSL   +99999+99999GF102991021999030001999999MA1999999100501MD1110011+9999REMSYN004BUFR
0125875930999992019022009004-34467-057883FM-12+002199999V0203201N0010122000199010000199+02421+02121100811ADDAZ101031AZ201031GA1011+030001031GE19MSL   +99999+99999GF101991011999030001999999MA1999999100541MD1310041+9999REMSYN004BUFR
0148875930999992019022012004-34467-057883FM-12+002199999V0203201N0026122000199010000199+02861+02091100901ADDAJ100009100000099AZ101061AZ201061GF100991999999999999999999IA1009IA2999+02109KA1120M+02861KA2120N+02311MA1999999100641MD1210091+9999REMSYN004BUFR
0087875930999992019022015004-34467-057883FM-12+002199999V0203601N0000122000199010000199+03301+02281100811ADDAZ101031AZ201031GF100991999999999999999999MA1999999100541MD1710091+9999REMSYN004BUFR
0152875930999992019022018004-34467-057883FM-12+002199999V0203601N0072122000199010000199+03361+02201100731ADDAA101999999AZ101061AZ201061GA1021+007501081GA2999+999999081GE19MSL   +99999+99999GF102991021999007501999999MA1999999100461MD1710081+9999REMSYN004BUFR
0141875930999992019022021004-34467-057883FM-12+002199999V0203201N0041122000199010000199+03271+02161100621ADDAZ101031AZ201031GA1011+007501081GA2999+999999081GE19MSL   +99999+99999GF101991011999007501999999MA1999999100361MD1710111+9999REMSYN004BUFR
0124875930999992019022100004-34467-057883FM-12+002199999V0203601N0015122000199010000199+02951+02061100721ADDAA101999999AZ101061AZ201061GF100991999999999999999999KA1120M+03461KA2120N+02861MA1999999100461MD1210111+9999REMSYN004BUFR
0087875930999992019022103004-34467-057883FM-12+002199999V0203601N0010122000199010000199+02621+02111100741ADDAZ101031AZ201031GF100991999999999999999999MA1999999100481MD1010011+9999REMSYN004BUFR
0136875930999992019022106004-34467-057883FM-12+002199999V0203201N0010122000199010000199+02571+02211100881ADDAA101999999AZ101061AZ201061GA1041+060001001GE19MSL   +99999+99999GF104991041999060001999999MA1999999100621MD1210151+9999REMSYN004BUFR
0141875930999992019022109004-34467-057883FM-12+002199999V0201601N0046106000199010000199+02151+01731101261ADDAZ101031AZ201031GA1041+030001031GA2051+060001001GE19MSL   +99999+99999GF105991041999030001999999MA1999999101001MD1210371+9999REMSYN004BUFR
0186875930999992019022112004-34467-057883FM-12+002199999V0201101N0057122000199010000199+02401+01681101251ADDAJ100009100000099AZ101061AZ201061GA1041+060001021GE19MSL   +99999+99999GF104991041999060001999999IA1009IA2999+02109KA1120M+02951KA2120N+02131MA1999999100981MD1810011+9999REMSYN004BUFR
0125875930999992019022115004-34467-057883FM-12+002199999V0200901N0072122000199010000199+02851+02031101381ADDAZ101031AZ201031GA1021+060001001GE19MSL   +99999+99999GF102991021999060001999999MA1999999101121MD1010131+9999REMSYN004BUFR
0136875930999992019022118004-34467-057883FM-12+002199999V0200701N0036106000199010000199+03061+02101101181ADDAA101999999AZ101061AZ201061GA1071+060001021GE19MSL   +99999+99999GF107991071999060001999999MA1999999100921MD1710201+9999REMSYN004BUFR
0125875930999992019022119004-34467-057883FM-12+002199999V0200701N0031106000199010000199+03101+02151101161ADDAZ101011AZ201011GA1061+060001021GE19MSL   +99999+99999GF106991061999060001999999MA1999999100901MD1710191+9999REMSYN004BUFR
0125875930999992019022120004-34467-057883FM-12+002199999V0200901N0021106000199010000199+03151+02131101131ADDAZ101011AZ201011GA1061+060001021GE19MSL   +99999+99999GF106991061999060001999999MA1999999100861MD1710111+9999REMSYN004BUFR
0125875930999992019022121004-34467-057883FM-12+002199999V0201101N0031122000199010000199+03121+02201101111ADDAZ101031AZ201031GA1031+060001001GE19MSL   +99999+99999GF103991031999060001999999MA1999999100851MD1710071+9999REMSYN004BUFR
0141875930999992019022122004-34467-057883FM-12+002199999V0200901N0021199999999010000199+03001+02231101111ADDAZ101011AZ201011GA1021+030001031GA2031+060001001GE19MSL   +99999+99999GF105991021999030001999999MA1999999100841MD1710071+9999REMSYN004BUFR
0141875930999992019022123004-34467-057883FM-12+002199999V0200901N0015199999999010000199+02761+02341101091ADDAZ101011AZ201011GA1021+030001031GA2031+060001001GE19MSL   +99999+99999GF105991021999030001999999MA1999999100821MD1710041+9999REMSYN004BUFR
0178875930999992019022200004-34467-057883FM-12+002199999V0200901N00151060001C9010000199+02621+02301101141ADDAA101999999AZ101061AZ201061GA1031+030001031GA2031+060001001GE19MSL   +99999+99999GF105991031999030001999999KA1120M+03201KA2120N+02401MA1999999100861MD1310011+9999REMSYN004BUFR
0141875930999992019022202004-34467-057883FM-12+002199999V0200901N00151060001C9010000199+02501+02301101141ADDAZ101011AZ201011GA1031+030001031GA2041+060001001GE19MSL   +99999+99999GF105991031999030001999999MA1999999100861MD1110041+9999REMSYN004BUFR
0141875930999992019022203004-34467-057883FM-12+002199999V0200901N0021106000199010000199+02501+02341101091ADDAZ101031AZ201031GA1041+030001031GA2071+060001021GE19MSL   +99999+99999GF107991041999030001999999MA1999999100821MD1810041+9999REMSYN004BUFR
0141875930999992019022204004-34467-057883FM-12+002199999V0203601N0000106000199010000199+02501+02351101111ADDAZ101011AZ201011GA1031+030001031GA2071+060001021GE19MSL   +99999+99999GF107991031999030001999999MA1999999100851MD1610051+9999REMSYN004BUFR
0141875930999992019022205004-34467-057883FM-12+002199999V0200501N0015106000199010000199+02551+02231101011ADDAZ101011AZ201011GA1031+030001031GA2081+060001021GE19MSL   +99999+99999GF108991031999030001999999MA1999999100741MD1810121+9999REMSYN004BUFR
0152875930999992019022206004-34467-057883FM-12+002199999V0200201N00211060001C9010000199+02551+02221100911ADDAA101999999AZ101061AZ201061GA1051+030001031GA2081+060001021GE19MSL   +99999+99999GF108991051999030001999999MA1999999100651MD1810171+9999REMSYN004BUFR
0141875930999992019022207004-34467-057883FM-12+002199999V0203601N00261060001C9010000199+02721+01981100901ADDAZ101011AZ201011GA1051+030001031GA2081+060001021GE19MSL   +99999+99999GF108991051999030001999999MA1999999100641MD1710211+9999REMSYN004BUFR
0141875930999992019022208004-34467-057883FM-12+002199999V0203601N00261060001C9010000199+02701+01951100761ADDAZ101011AZ201011GA1051+030001031GA2081+060001021GE19MSL   +99999+99999GF108991051999030001999999MA1999999100501MD1710241+9999REMSYN004BUFR
0141875930999992019022209004-34467-057883FM-12+002199999V0203601N00311060001C9010000199+02721+02031100831ADDAZ101031AZ201031GA1061+030001031GA2081+060001021GE19MSL   +99999+99999GF108991061999030001999999MA1999999100571MD1610081+9999REMSYN004BUFR
0141875930999992019022210004-34467-057883FM-12+002199999V0203601N00211060001C9010000199+02701+02161100981ADDAZ101011AZ201011GA1061+030001031GA2081+060001021GE19MSL   +99999+99999GF108991061999030001999999MA1999999100721MD1310081+9999REMSYN004BUFR
0141875930999992019022211004-34467-057883FM-12+002199999V0203601N00211060001C9010000199+02701+02201101081ADDAZ101011AZ201011GA1061+030001031GA2081+060001021GE19MSL   +99999+99999GF108991061999030001999999MA1999999100821MD1210321+9999REMSYN004BUFR
0186875930999992019022212004-34467-057883FM-12+002199999V0203401N00211030001C9010000199+02771+02231101151ADDAJ100009100000099AZ101061AZ201061GA1081+030001031GE19MSL   +99999+99999GF108991081999030001999999IA1009IA2999+02209KA1120M+02771KA2120N+02421MA1999999100891MD1210321+9999REMSYN004BUFR
0125875930999992019022213004-34467-057883FM-12+002199999V0202701N00101015001C9010000199+02721+02261101321ADDAZ101011AZ201011GA1081+015001051GE19MSL   +99999+99999GF108991081999015001999999MA1999999101061MD1210351+9999REMSYN004BUFR
0131875930999992019022214004-34467-057883FM-12+002199999V0202301N00151013501C9007000199+02551+02151101181ADDAY161011AY221011GA1081+013501051GE19MSL   +99999+99999GF108991081999013501999999MA1999999100901MD1010081+9999MW1621REMSYN004BUFR
0147875930999992019022215004-34467-057883FM-12+002199999V0200901N00101060001C9010000199+02801+02201101051ADDAY161031AY221031GA1061+030001031GA2061+060001021GE19MSL   +99999+99999GF107991061999030001999999MA1999999100781MD1810111+9999MW1211REMSYN004BUFR
0147875930999992019022216004-34467-057883FM-12+002199999V0203201N00151060001C9010000199+02871+02191101131ADDAY161011AY221011GA1061+015001051GA2071+060001021GE19MSL   +99999+99999GF107991061999015001999999MA1999999100861MD1510201+9999MW1021REMSYN004BUFR
0131875930999992019022217004-34467-057883FM-12+002199999V0203601N00151015001C9009000199+02711+02241101011ADDAY161011AY221011GA1081+015001051GE19MSL   +99999+99999GF108991081999015001999999MA1999999100741MD1710161+9999MW1601REMSYN004BUFR
0158875930999992019022218004-34467-057883FM-12+002199999V0200201N00101060001C9010000199+02971+02291100921ADDAA106999999AY161061AY221061GA1051+030001031GA2031+060001001GE19MSL   +99999+99999GF106991051999030001999999MA1999999100661MD1810121+9999MW1211REMSYN004BUFR
0147875930999992019022219004-34467-057883FM-12+002199999V0203401N00261060001C9010000199+03001+02231100931ADDAY161011AY221011GA1061+030001031GA2031+060001021GE19MSL   +99999+99999GF107991061999030001999999MA1999999100661MD1610201+9999MW1031REMSYN004BUFR
0131875930999992019022220004-34467-057883FM-12+002199999V0203601N00151030001C9010000199+02961+02341100901ADDAY161011AY221011GA1061+030001031GE19MSL   +99999+99999GF107991061999030001999999MA1999999100641MD1710111+9999MW1211REMSYN004BUFR
0147875930999992019022221004-34467-057883FM-12+002199999V0203601N00151060001C9010000199+02871+02351100861ADDAY161031AY221031GA1041+030001031GA2041+060001021GE19MSL   +99999+99999GF107991041999030001999999MA1999999100601MD1810071+9999MW1021REMSYN004BUFR
0141875930999992019022222004-34467-057883FM-12+002199999V0200901N00211060001C9010000199+02711+02351100761ADDAZ101011AZ201011GA1021+030001031GA2061+060001021GE19MSL   +99999+99999GF107991021999030001999999MA1999999100501MD1710161+9999REMSYN004BUFR
0163875930999992019022223004-34467-057883FM-12+002199999V0201101N0026101350199006000199+02551+02391100871ADDAY191011AY261011GA1011+013501091GA2081+013501051GA3999+999999091GE19MSL   +99999+99999GF108991011999013501999999MA1999999100611MD1510031+9999MW1951REMSYN004BUFR
0200875930999992019022300004-34467-057883FM-12+002199999V0200901N0026101350199006000199+02251+02211100911ADDAA106020031AY191061AY261061GA1011+012001091GA2081+013501051GA3999+999999091GE19MSL   +99999+99999GF108991011999012001999999KA1120M+03171KA2120N+02241MA1999999100641MD1310041+9999MW1951REMSYN004BUFR
0163875930999992019022301004-34467-057883FM-12+002199999V0200901N0031101350199006000199+02171+02151100941ADDAY191011AY221011GA1011+012001091GA2081+013501051GA3999+999999091GE19MSL   +99999+99999GF108991011999012001999999MA1999999100661MD1210161+9999MW1951REMSYN004BUFR
0163875930999992019022302004-34467-057883FM-12+002199999V0201401N0103101350199004000199+02111+02081101091ADDAY191011AY261011GA1011+012001091GA2081+013501051GA3999+999999091GE19MSL   +99999+99999GF108991011999012001999999MA1999999100821MD1210211+9999MW1951REMSYN004BUFR
0163875930999992019022303004-34467-057883FM-12+002199999V0201601N0051101350199005000199+02021+02001101031ADDAY191031AY261031GA1011+012001091GA2081+013501051GA3999+999999091GE19MSL   +99999+99999GF108991011999012001999999MA1999999100761MD1210121+9999MW1951REMSYN004BUFR
0163875930999992019022304004-34467-057883FM-12+002199999V0201401N0067101350199006000199+02001+01961101001ADDAY191011AY261011GA1011+012001091GA2081+013501051GA3999+999999091GE19MSL   +99999+99999GF108991011999012001999999MA1999999100731MD1010071+9999MW1951REMSYN004BUFR
0131875930999992019022305004-34467-057883FM-12+002199999V0201401N00361013501C9007000199+02051+02011100951ADDAY191011AY261011GA1081+013501051GE19MSL   +99999+99999GF108991081999013501999999MA1999999100681MD1710151+9999MW1291REMSYN004BUFR
0158875930999992019022306004-34467-057883FM-12+002199999V0200901N0026103000199010000199+02161+02131100921ADDAA106093031AY191061AY261061GA1041+000901071GA2061+030001031GE19MSL   +99999+99999GF107991041999000901999999MA1999999100661MD1710091+9999MW1211REMSYN004BUFR
0131875930999992019022307004-34467-057883FM-12+002199999V0201401N00151030001C9010000199+02221+02181100901ADDAY161011AY221011GA1071+030001031GE19MSL   +99999+99999GF107991071999030001999999MA1999999100641MD1710091+9999MW1021REMSYN004BUFR
0125875930999992019022308004-34467-057883FM-12+002199999V0201801N00361030001C9010000199+02161+02111100761ADDAZ101011AZ201011GA1071+030001031GE19MSL   +99999+99999GF107991071999030001999999MA1999999100501MD1710171+9999REMSYN004BUFR
0125875930999992019022309004-34467-057883FM-12+002199999V0203601N00001030001C9010000199+02151+02091100801ADDAZ101031AZ201031GA1081+030001031GE19MSL   +99999+99999GF108991081999030001999999MA1999999100531MD1710131+9999REMSYN004BUFR
0141875930999992019022310004-34467-057883FM-12+002199999V0201801N00211030001C9010000199+02121+02041100881ADDAZ101011AZ201011GA1051+001201071GA2081+030001031GE19MSL   +99999+99999GF108991051999001201999999MA1999999100611MD1510031+9999REMSYN004BUFR
0141875930999992019022311004-34467-057883FM-12+002199999V0201801N0046103000199010000199+02111+02051100801ADDAZ101011AZ201011GA1041+001201071GA2081+030001031GE19MSL   +99999+99999GF108991041999001201999999MA1999999100531MD1010031+9999REMSYN004BUFR
0202875930999992019022312004-34467-057883FM-12+002199999V0201801N0031101350199010000199+02101+02051100841ADDAJ100113100113099AZ101061AZ201061GA1011+001201071GA2081+013501051GE19MSL   +99999+99999GF108991011999001201999999IA1109IA2999+02109KA1120M+02401KA2120N+01991MA1999999100571MD1310041+9999REMSYN004BUFR
0147875930999992019022313004-34467-057883FM-12+002199999V0201801N00261013501C9006000199+02051+02051100801ADDAY151011AY221011GA1061+001201071GA2081+013501051GE19MSL   +99999+99999GF108991061999001201999999MA1999999100531MD1710081+9999MW1511REMSYN004BUFR
0131875930999992019022314004-34467-057883FM-12+002199999V0201601N00261003601C9008000199+02221+02181100731ADDAY151011AY251011GA1081+003601061GE19MSL   +99999+99999GF108991081999003601999999MA1999999100461MD1810071+9999MW1201REMSYN004BUFR
0131875930999992019022315004-34467-057883FM-12+002199999V0201601N00151003601C9010000199+02361+02211100731ADDAY151031AY221031GA1081+003601061GE19MSL   +99999+99999GF108991081999003601999999MA1999999100461MD1510111+9999MW1021REMSYN004BUFR
0141875930999992019022316004-34467-057883FM-12+002199999V0203601N0000103000199010000199+02451+02221100641ADDAZ101011AZ201011GA1021+004501061GA2071+030001031GE19MSL   +99999+99999GF107991021999004501999999MA1999999100371MD1710161+9999REMSYN004BUFR
0141875930999992019022317004-34467-057883FM-12+002199999V0203601N0000103000199010000199+02451+02221100601ADDAZ101011AZ201011GA1011+004501061GA2081+030001031GE19MSL   +99999+99999GF108991011999004501999999MA1999999100331MD1810131+9999REMSYN004BUFR
0158875930999992019022318004-34467-057883FM-12+002199999V0202501N0010103000199010000199+02501+02271100531ADDAA106000831AY151061AY221061GA1031+004501061GA2081+030001031GE19MSL   +99999+99999GF108991031999004501999999MA1999999100261MD1710201+9999MW1021REMSYN004BUFR
0141875930999992019022319004-34467-057883FM-12+002199999V0201801N0026103000199010000199+02501+02251100391ADDAZ101011AZ201011GA1041+004501061GA2081+030001031GE19MSL   +99999+99999GF108991041999004501999999MA1999999100121MD1710251+9999REMSYN004BUFR
0125875930999992019022320004-34467-057883FM-12+002199999V0201801N00261030001C9010000199+02401+02211100381ADDAZ101011AZ201011GA1081+030001031GE19MSL   +99999+99999GF108991081999030001999999MA1999999100101MD1710231+9999REMSYN004BUFR
0125875930999992019022321004-34467-057883FM-12+002199999V0201801N00211030001C9010000199+02401+02151100361ADDAZ101031AZ201031GA1081+030001031GE19MSL   +99999+99999GF108991081999030001999999MA1999999100091MD1710171+9999REMSYN004BUFR
0125875930999992019022322004-34467-057883FM-12+002199999V0201401N00151013501C9010000199+02321+02151100291ADDAZ101011AZ201011GA1081+013501051GE19MSL   +99999+99999GF108991081999013501999999MA1999999100021MD1710091+9999REMSYN004BUFR
0131875930999992019022323004-34467-057883FM-12+002199999V0202001N00101013501C9009000199+02301+02171100311ADDAY161011AY221011GA1081+013501051GE19MSL   +99999+99999GF108991081999013501999999MA1999999100041MD1510071+9999MW1601REMSYN004BUFR
0168875930999992019022400004-34467-057883FM-12+002199999V0202301N00101012001C9009000199+02221+02191100341ADDAA106999999AY161061AY221061GA1081+012001051GE19MSL   +99999+99999GF108991081999012001999999KA1120M+02671KA2120N+02021MA1999999100061MD1510031+9999MW1611REMSYN004BUFR
0147875930999992019022401004-34467-057883FM-12+002199999V0202001N0036101260199010000199+02221+02191100421ADDAY161011AY221011GA1041+002401071GA2081+012601051GE19MSL   +99999+99999GF108991041999002401999999MA1999999100141MD1210121+9999MW1211REMSYN004BUFR
0131875930999992019022402004-34467-057883FM-12+002199999V0203601N00001014101C9008000199+02171+02171100371ADDAY161011AY221011GA1051+014101051GE19MSL   +99999+99999GF105991051999014101999999MA1999999100101MD1010071+9999MW1101REMSYN004BUFR
0131875930999992019022403004-34467-057883FM-12+002199999V0203601N0000122000199008000199+02071+02071100321ADDAY161031AY241031GA1031+030001031GE19MSL   +99999+99999GF103991031999030001999999MA1999999100051MD1810011+9999MW1111REMSYN004BUFR
0131875930999992019022404004-34467-057883FM-12+002199999V0202301N0015122000199000900199+02051+02041100291ADDAY141011AY241011GA1021+030001031GE19MSL   +99999+99999GF102991021999030001999999MA1999999100021MD1710121+9999MW1461REMSYN004BUFR
